:020000040000FA
:060000000A128A11F82F1C
:100DB2008316031789018801831603138801013002
:100DC20086000130870001308900831203138601F7
:100DD2008701880108008312031308148230F5008A
:100DE200DD30F400F40BF32EF50BF32EF82E831204
:100DF2000313081088148230F500DD30F400F40B80
:100E0200002FF50B002F052F8312031388100815EE
:100E1200080070037104031D0F2F102F132F83126C
:100E220003138714023070067104031D192F1A2F41
:100E32001D2F831203130715033070067104031D5F
:100E4200232F242F272F83120313871504307006B4
:100E52007104031D2D2F2E2F312F8312031307161A
:100E6200053070067104031D372F382F3B2F831274
:100E720003138716063070067104031D412F422F9B
:100E8200452F831203130717073070067104031DE1
:100E92004B2F4C2F4F2F8312031387170800720317
:100EA2007304031D552F562F592F831203138614D3
:100EB200023072067304031D5F2F602F632F8312AB
:100EC20003130615033072067304031D692F6A2F7C
:100ED2006D2F831203138615043072067304031DEB
:100EE200732F742F772F83120313061605307206A1
:100EF2007304031D7D2F7E2F812F83120313861609
:100F0200063072067304031D872F882F8B2F8312DE
:100F120003130617073072067304031D912F922FD5
:100F2200952F83120313861708000A128A11D926F5
:100F32000A128A1183120313091CA02FA12FF52F65
:100F42000A128A11EC260A128A1183120313081D4F
:100F5200AB2FAC2FF52FDA2F6830F700E430F60014
:100F6200F60BB12FF70BB12F000083120313061CEF
:100F7200BB2FBC2FC42F7208013EF2007308031866
:100F8200013E003EF300071CC72FC82FD02F700868
:100F9200013EF00071080318013E003EF1000A1202
:100FA2008A1150270A128A110A128A110A270A1272
:100FB2008A117308803AFF0080307F02031DE32FFD
:100FC200083072020318E62FE72FF52F7108803AD6
:100FD200FF0080307F02031DF02F08307002031CD7
:100FE200F32FF42FAD2FF52F0A128A110028F001EA
:0E0FF200F101F201F30183010A128A11962F18
:04400E00D120FF3F7F
:00000001FF
