:020000040000FA
:060000000A128A110C280F
:10000800FE00030EF4000A08F5000A128A115428AB
:100018000A128A110F28F001F101F201F30183019C
:100028000A128A1117280A128A113D200A128A1107
:100038008312031385182128222826280130F0006E
:100048000030F100851C29282A283A2870037104F9
:10005800031D2F2830283A287208FF3EF200730843
:100068000318013EFF3EF300F001F1010A128A1164
:100078000C2883160317880189010330831603139C
:100088008500860187018801890183120313850190
:1000980088018701033089008B170B170B1608009E
:1000A8008B1C5728582861288B107208013EF200D3
:1000B80073080318013E003EF30075088A00740EA9
:0800C8008300FE0E7E0E09000C
:04400E00D220FF3F7E
:00000001FF
