:020000040000FA
:060000000A128A110C280F
:10000800FE00030EF2000A08F3000A168A15B12B47
:100018000A128A110F2883160313CE01CF01D001CB
:10002800D101D201D301D401D501D601D701D8011C
:10003800D901DA0183010A168A156B2E8316031378
:10004800C300A930AD002D08B600912F25304A060F
:1000580003192F2830283C284A08AD00430884009B
:100068002D08831380000130AD002D08C307912FA0
:10007800B701B801280884000A168A110A200A1252
:100088008A112E3A031D49284A288F28381701302B
:10009800AD002D08A807C401C5017E280A30F40068
:1000A8000030F500831603134508F7004408F600EE
:1000B8000A168A15D3230A128A11750883160313A0
:1000C800C5007408C400280884000A168A110A208A
:1000D8000A128A11D03EAD00FF3003180030AE007E
:1000E8002D08C4070318C50A2E08C5070130AD003E
:1000F8002D08A807280884000A168A110A200A125F
:100108008A110A168A1571230A128A1103188D2872
:100118008E2852289528C401C50138169528381507
:10012800B128013083160313A807FF30280784007D
:100138000A168A110A200A128A11CA00AD00AE01F5
:100148002E08003A0319A928912F2D08003A0319FF
:10015800A32F663A03199328912F00303705AD0075
:1001680007303805AE002D082E040319BC28BD2819
:100178004C2F381EC028C128C5280630C4000030BE
:10018800C5003608840083130008C600840A0008E6
:10019800C700840A0008C800840A0008C90004309F
:1001A800AD002D08B607490883120313A300831670
:1001B8000313480883120313A20083160313470886
:1001C80083120313A1008316031346088312031333
:1001D800A0000030A7000030A6000030A5000030C5
:1001E800A4000A168A155C270A128A110318FD282A
:1001F800FE281B29831603134908F7004808F60050
:100208004708F5004608F4000A168A1549230A1219
:100218008A11770883160313C9007608C800750881
:10022800C7007408C6000330B7040030B80483164A
:100238000313BD01BE01490883120313A3008316EB
:100248000313480883120313A200831603134708F5
:1002580083120313A10083160313460883120313A2
:10026800A0000030A7000030A6000030A500003034
:10027800A4000A168A1507250A128A1103184529A7
:100288004629622A031083160313480D490D823E3E
:10029800BD00FF3003180030BE00FF30BD07031853
:1002A800BE0AFF30BE070330F4000030F5003E08F8
:1002B800F7003D08F6000A168A15D3230A128A1198
:1002C800750883160313BE007408BD000A30831234
:1002D8000313A2000030A300831603133E08831201
:1002E8000313A500831603133D0883120313A40008
:1002F8000A168A1502260A128A1183120313230882
:1003080083160313BE0083120313220883160313F4
:10031800BD00BE1F902991299729FF30BD070318FA
:10032800BE0AFF30BE073D03FF3A0A128A159D2414
:100338000A128A1183120313480883160313C20092
:1003480083120313470883160313C1008312031390
:10035800460883160313C000831203134508831647
:100368000313BF00490883120313AE008316031357
:10037800480883120313AD0083160313470883123A
:100388000313AC0083160313460883120313AB0050
:1003980083160313420883120313B2008316031350
:1003A800410883120313B100831603134008831214
:1003B8000313B000831603133F0883120313AF001F
:1003C8000A128A153C210A128A11831203132E0875
:1003D80083160313C200831203132D088316031315
:1003E800C100831203132C0883160313C000831261
:1003F80003132B0883160313BF0042088312031349
:10040800A30083160313410883120313A200831663
:100418000313400883120313A100831603133F0834
:1004280083120313A0003F30A7008030A6000030DD
:10043800A5000030A4000A168A155C270A128A1142
:100448000318272A282A312AFF3083160313BD07E9
:100458000318BE0AFF30BE07622A83160313420838
:1004680083120313A3008316031341088312031393
:10047800A20083160313400883120313A1008316F6
:1004880003133F0883120313A0004130A700203054
:10049800A6000030A5000030A4000A168A155C27C3
:1004A8000A128A11031C592A5A2A622A0130831611
:1004B8000313BD070318BE0A0030BE0783160313D3
:1004C8004508803AFF0080307F02031D6D2A0D30F9
:1004D80044020318702A712AB82A831603134408A1
:1004E8000A168A116B230A128A1183120313480809
:1004F800DC004708DB004608DA004508D900831607
:100508000313490883120313E000831603134808F2
:1005180083120313DF0083160313470883120313A0
:10052800DE0083160313460883120313DD000A1640
:100538008A1178250A128A11831203135C0883161C
:100548000313C900831203135B0883160313C8003F
:10055800831203135A0883160313C7008312031365
:10056800590883160313C600831603133E08803AFE
:10057800FF0080307F02031DC32A0A303D020318A2
:10058800C62AC72A262B8316031349088312031386
:10059800A30083160313480883120313A2008316CB
:1005A8000313470883120313A10083160313460895
:1005B80083120313A0000030A7000030A60000300B
:1005C800A5000030A4000A168A1507250A128A1108
:1005D8000318EF2AF02AD22B831603134908831233
:1005E8000313DB0083160313480883120313DA008E
:1005F80083160313470883120313D90083160313C2
:10060800460883120313D8000A168A15E0260A1230
:100618008A11831203135B085A0459045804031DF2
:10062800162B172BD22B831603133E08803AFF0094
:1006380080307F02031D222B02303D02031C252B34
:10064800262BD22B83160313420883120313A3000D
:1006580083160313410883120313A200831603139E
:10066800400883120313A100831603133F08831263
:100678000313A0004030A7008930A6007030A50001
:100688005F30A4000A168A155C270A128A1103181B
:100698004E2B4F2B582BF73083160313BD07031827
:1006A800BE0AFF30BE07602BF83083160313BD0760
:1006B8000318BE0AFF30BE073D080A128A159D249A
:1006C8000A128A1183120313480883160313C200FF
:1006D80083120313470883160313C10083120313FD
:1006E800460883160313C0008312031345088316B4
:1006F8000313BF00490883120313A30083160313CF
:10070800480883120313A2008316031347088312B1
:100718000313A10083160313460883120313A000D2
:1007280083160313420883120313A70083160313C7
:10073800410883120313A60083160313400883128B
:100748000313A500831603133F0883120313A400A1
:100758000A168A11AD220A128A118312031323087A
:1007680083160313BC008312031322088316031392
:10077800BB0083120313210883160313BA008312E4
:100788000313200883160313B9000030C900003092
:10079800C8000030C7000030C600542C831603136D
:1007A800490883120313DB008316031348088312D6
:1007B8000313DA0083160313470883120313D900BF
:1007C80083160313460883120313D8000A168A15E2
:1007D800E0260A128A11831203135B088316031397
:1007E800BC00831203135A0883160313BB00831239
:1007F8000313590883160313BA0083120313580806
:1008080083160313B9003C0883120313AE00831642
:1008180003133B0883120313AD00831603133A082E
:1008280083120313AC0083160313390883120313CE
:10083800AB0000300A168A1134210A128A11831279
:1008480003132E0883160313A300831203132D0822
:1008580083160313A200831203132C0883160313B1
:10086800A100831203132B0883160313A000490861
:10087800A7004808A6004708A5004608A4000A16CD
:100888008A1557250A128A11831603132308C900EB
:100898002208C8002108C7002008C600BD01BE0103
:1008A800CA01CA0A4A08AD0001300310AD0DFF3E67
:1008B800031D592C03102D0D693E84000A168A1158
:1008C8000A200A128A11AE000A168A110A200A1290
:1008D8008A11AF000A168A110A200A128A11B0007A
:1008E8000A168A110A200A128A11B10031083C023C
:1008F800031D882C30083B02031D882C2F083A0260
:10090800031D882C2E08390203188B2C8C2C8D2C57
:10091800972C0130AD002D08CA070A304A06031D7E
:10092800962C972C562C03303705AD00003038052F
:10093800AE002D082E040319A22CA32C552D2D3002
:10094800AD00430884002D08831380000130AD00FA
:100958002D08C307552D4A08AD0001300310AD0D11
:10096800FF3E031DB22C03102D0D693E84000A16AC
:100978008A110A200A128A1183120313A0000A1688
:100988008A110A200A128A11A1000A168A110A205D
:100998000A128A11A2000A168A110A200A128A115A
:1009A800A300831603133C0883120313A7008316BE
:1009B80003133B0883120313A600831603133A0894
:1009C80083120313A5008316031339088312031334
:1009D800A4000A168A11CC200A128A118312031362
:1009E800230883160313C2008312031322088316F5
:1009F8000313C10083120313210883160313C000D5
:100A080083120313200883160313BF0000308312D8
:100A18000313A3000030A2000030A1000A30A00098
:100A280083160313420883120313A70083160313C4
:100A3800410883120313A600831603134008831288
:100A48000313A500831603133F0883120313A4009E
:100A58000A128A11A8270A128A118312031323087B
:100A680083160313C2008312031322088316031389
:100A7800C10083120313210883160313C0008312D5
:100A88000313200883160313BF003F08303EAD0050
:100A9800430884002D08831380000130AD002D0821
:100AA800C3070130CA024A0A031D5B2D5C2DAF2C17
:100AB800702D303083160313AD00430884002D08D1
:100AC800831380000130AD002D08C307FF30BD0738
:100AD8000318BE0AFF30BE073E08803AFF00803088
:100AE8007F02031D792D01303D0203187C2D7D2DD9
:100AF8005D2D831603134508803AFF0080307F027E
:100B0800031D882D09304402031C8B2D8C2D932D39
:100B1800083083160313AD002D08CA00992D8316DB
:100B280003134408AD002D08CA004A08AD00AE0101
:100B38002D08C4022E08031CC503C5024A08031960
:100B4800A62DA72DB22D2E30AD00430884002D0808
:100B5800831380000130AD002D08C3074A080A122C
:100B68008A159D240A128A118312031348088316D2
:100B78000313B50083120313470883160313B40045
:100B880083120313460883160313B3008312031357
:100B9800450883160313B200350883120313B20005
:100BA80083160313340883120313B1008316031347
:100BB800330883120313B000831603133208831219
:100BC8000313AF0083160313490883120313AE00FF
:100BD80083160313480883120313AD008316031307
:100BE800470883120313AC008316031346088312C5
:100BF8000313AB000A128A153C210A128A118312C8
:100C080003132E08DB002D08DA002C08D9002B0866
:100C1800D8000A168A15E0260A128A1183120313CD
:100C28005B0883160313BC00831203135A08831648
:100C38000313BB0083120313590883160313BA0066
:100C480083120313580883160313B9002C2F4A087C
:100C5800AD0001300310AD0DFF3E031D2E2E031015
:100C68002D0D693E84000A168A110A200A128A117B
:100C780083120313A0000A168A110A200A128A1185
:100C8800A1000A168A110A200A128A11A2000A165D
:100C98008A110A200A128A11A300831603133C083A
:100CA80083120313A700831603133B08831203134D
:100CB800A600831603133A0883120313A5008316AC
:100CC8000313390883120313A4000A168A11CC20CF
:100CD8000A128A1183120313230883160313C2000E
:100CE80083120313220883160313C100831203130C
:100CF800210883160313C0008312031320088316E8
:100D08000313BF00003083120313A3000030A200B6
:100D18000030A1000A30A000831603134208831292
:100D28000313A70083160313410883120313A600B5
:100D380083160313400883120313A50083160313B5
:100D48003F0883120313A4000A128A11A8270A1263
:100D58008A1183120313230883160313C200831214
:100D68000313220883160313C100831203132108F7
:100D780083160313C000831203132008831603137A
:100D8800BF003F08303EAD00430884002D088313A0
:100D980080000130AD002D08C3074A08AD000130BE
:100DA8000310AD0DFF3E031DD42E03102D0D693E1B
:100DB80084000A168A110A200A128A118312031360
:100DC800A0000A168A110A200A128A11A1000A161E
:100DD8008A110A200A128A11A2000A168A110A2008
:100DE8000A128A11A300831603133C088312031303
:100DF800A700831603133B0883120313A600831668
:100E080003133A0883120313A50083160313390842
:100E180083120313A4000A128A11A8270A128A113E
:100E280083120313230883160313BC0083120313CE
:100E3800220883160313BB008312031321088316A9
:100E48000313BA0083120313200883160313B9008F
:100E58000130CA024A0A031D322F332F2B2E452F89
:100E68003030AD00430884002D0883138000013022
:100E7800AD002D08C307FF30C4070318C50AFF30AB
:100E8800C50744084504031D4A2F4B2F342F912FC3
:100E980044084504031D512F522F602F3C083B0482
:100EA8003A043904031D592F5A2F602F0130C40703
:100EB8000318C50A0030C5074508803A803C031D61
:100EC800672F44084A0203186A2F6B2F6C2F7B2F59
:100ED800831603134508803AAD0080302D02031DA8
:100EE800772F4A08440203187A2F7B2F7B2F033071
:100EF800831603133705AD0000303805AE002D0802
:100F08002E040319882F892F912F2D30AD00430807
:100F180084002D088313800037280130A807FF308C
:100F2800280784000A168A110A200A128A11AD00BD
:100F38002D08CA004A08031DA22FA32F2A284308F8
:100F480084008313800108008312031323082204FA
:100F5800210420040319B12FB22FF52FF501F50A4A
:100F6800C22F0130F4000310A00DA10DA20DA30D96
:100F7800F40BB72F0130F4007408F507A31FC52F31
:100F8800C62FB52F23082702031DD42F22082602B7
:100F9800031DD42F21082502031DD42F2008240265
:100FA800031CD72FD82FE62F2008A4022108031CE2
:100FB800210FA5022208031C220FA6022308031CE6
:100FC800230FA70201300310A30CA20CA10CA00C44
:100FD800FF3E031DE72F0130F502031DF42FF52F07
:100FE800C62F2708A3002608A2002508A100240868
:040FF800A00008004D
:10100A007408750403190A280B283A28F901F90A01
:10101A00192801300310F40DF50DFF3E031D0F28AA
:10102A000130F8007808F907F51F1C281D280E283A
:10103A0075087702031D232874087602031C2628E4
:10104A0027282D287408F6027508031CF703F702EF
:10105A0001300310F50CF40CFF3E031D2E2801305D
:10106A00F902031D39283A281D287708F500760861
:10107A00F400080083120313EE006E08ED00ED0D74
:10108A00ED0D1F086D06C3396D069F009F184E2887
:10109A004F28C6286E08031D53285428C628053031
:1010AA00F6000030F700831603135908F5005808B4
:1010BA00F4000A168A15D3230A128A1575088312B0
:1010CA000313A5007408A400FF30A2000030A30097
:1010DA000A168A1502260A128A158312031322088F
:1010EA00AB002308AC000030AC1BFF30AD00AE00F3
:1010FA0001300A168A1134210A128A15831203133F
:10110A002E0883160313D500831203132D088316A2
:10111A000313D400831203132C0883160313D3007A
:10112A00831203132B0883160313D200B8308312D9
:10113A000313ED006D0883160313A8005508AC00CD
:10114A005408AB005308AA005208A900DA300A1260
:10115A008A1122200A128A15F701F70A02300A16A2
:10116A008A15F8230A128A15DA30F6000030F700D9
:10117A000A168A157D240A128A15831203139F14EC
:10118A003B290530F6000030F70083160313570891
:10119A00F5005608F4000A168A15D3230A128A158E
:1011AA00750883120313A5007408A400FF30A20077
:1011BA000030A3000A168A1502260A128A1583121B
:1011CA0003132208AB002308AC000030AC1BFF302D
:1011DA00AD00AE0001300A168A1134210A128A15AE
:1011EA00831203132E0883160313D10083120313E9
:1011FA002D0883160313D000831203132C088316B9
:10120A000313CF00831203132B0883160313CE0094
:10121A00B83083120313ED006D0883160313A80078
:10122A005108AC005008AB004F08AA004E08A900AC
:10123A00DA300A128A1122200A128A15073083121A
:10124A000313ED006D08F70002300A168A15F82319
:10125A000A128A15DA30F6000030F7000A168A15E3
:10126A007D240A128A15831203139F14080083121D
:10127A0003132E088039B3003308B8002E08B300D0
:10128A003307B4003408BE00AD1F4C294D294E293E
:10129A003E143E0803195229532962293E0A031DA6
:1012AA005729582960290030AE000030AD000030BF
:1012BA00AC000030AB00AD176A290030AE00003038
:1012CA00AD000030AC000030AB0032088039B3000A
:1012DA003308B8063208B3003307B4003408BD0037
:1012EA00B11F782979297A293D143D0803197E29E5
:1012FA007F298E293D0A031D832984298C290030E0
:10130A00B2000030B1000030B0000030AF00B117B9
:10131A0096290030B2000030B1000030B000003031
:10132A00AF003D0803199A299B29A0293E08031DED
:10133A009F29A029A9290030AE000030AD00003055
:10134A00AC000030AB009C2C2B08B3003308F4002F
:10135A0031080A168A151E240A128A15750883127C
:10136A000313C4007408C3004308B300B401B501F1
:10137A00B6013608BC003508BB003408BA00330889
:10138A00B9004408B300B401B501B6013608C20079
:10139A003508C1003408C0003308BF002C08B30068
:1013AA003308F40030080A168A151E240A128A1510
:1013BA00750883120313C4007408C3004308B300FA
:1013CA00B401B501B6013308B9073408031103188B
:1013DA00013E0319F129BA07350803110318013E22
:1013EA000319F829BB07360803110318013E03192C
:1013FA00FF29BC074408B300B401B501B60133089C
:10140A00BF07340803110318013E03190D2AC00748
:10141A00350803110318013E0319142AC1073608B7
:10142A0003110318013E03191B2AC2072D08B30032
:10143A003308F4002F080A168A151E240A128A1580
:10144A00750883120313C4007408C3004308B30069
:10145A00B401B501B6013308B907340803110318FA
:10146A00013E0319392ABA07350803110318013E48
:10147A000319402ABB07360803110318013E031952
:10148A00472ABC074408B300B401B501B6013308C2
:10149A00BF07340803110318013E0319552AC00770
:1014AA00350803110318013E03195C2AC1073608DF
:1014BA0003110318013E0319632AC2070830B30057
:1014CA000310B90DBA0DBB0DBC0DB30B652A2C0860
:1014DA00B3003308F4002F080A168A151E240A12CC
:1014EA008A15750883120313C4007408C3004308DD
:1014FA00B3004408B400B501B6013308B90734088B
:10150A0003110318013E03198B2ABA073508031180
:10151A000318013E0319922ABB0736080311031860
:10152A00013E0319992ABC072B08B3003308F400BB
:10153A0030080A168A151E240A128A15750883129B
:10154A000313C4007408C3004308B3004408B4007A
:10155A00B501B6013308B907340803110318013E6F
:10156A000319B82ABA07350803110318013E0319EB
:10157A00BF2ABB07360803110318013E0319C62AFE
:10158A00BC070830B3000310B90DBA0DBB0DBC0D72
:10159A00B30BC82A2B08B3003308F4002F080A1625
:1015AA008A151E240A128A15750883120313C400A9
:1015BA007408C3004308B3004408B400B501B60177
:1015CA003308B907340803110318013E0319EE2A38
:1015DA00BA07350803110318013E0319F52ABB0798
:1015EA00360803110318013E0319FC2ABC072C080C
:1015FA00B3003308F40031080A168A151E240A12A9
:10160A008A15750883120313C4007408C3004308BB
:10161A00B3004408B400B501B6013308BF07340863
:10162A0003110318013E03191B2BC00735080311C8
:10163A000318013E0319222BC107360803110318A8
:10164A00013E0319292BC2072D08B3003308F40001
:10165A0030080A168A151E240A128A15750883127A
:10166A000313C4007408C3004308B3004408B40059
:10167A00B501B6013308BF07340803110318013E48
:10168A000319482BC007350803110318013E031933
:10169A004F2BC107360803110318013E0319562BB5
:1016AA00C2072D08B3003308F40031080A168A1558
:1016BA001E240A128A15750883120313C4007408BB
:1016CA00C3004308B3004408B400B501B6010830AA
:1016DA000310B30DB40DB50DB60DFF3E031D6D2BF2
:1016EA003308BF07340803110318013E03197E2B80
:1016FA00C007350803110318013E0319852BC107DA
:10170A00360803110318013E03198C2BC207390846
:10171A00B3003A08B4003B08B5003C08B6001830DC
:10172A000310B60CB50CB40CB30CFF3E031D952B7D
:10173A003308BF07340803110318013E0319A62B07
:10174A00C007350803110318013E0319AD2BC10761
:10175A00360803110318013E0319B42BC2070830D7
:10176A00B3000310B90DBA0DBB0DBC0DB30BB62BEC
:10177A003E083D07B300B401B40D3308823EC300EE
:10178A0034080318013EFF3EC400E82B0130B300C1
:10179A000310BF0DC00DC10DC20DB30BCD2BBC1F65
:1017AA00D72BD82BD92B3F140130B3000310B90D16
:1017BA00BA0DBB0DBC0DB30BDB2BFF30C3070318EF
:1017CA00C40AFF30C407C11FEB2BEC2BCB2BBD0186
:1017DA00BC1FF02BF12B0D2CFF303905B300FF3065
:1017EA003A05B400FF303B05B5007F303C05B60032
:1017FA0036083504340433040319042C052C082C48
:10180A00BD01BD0A0D2C3F1C0B2C0C2C0D2C052CDC
:10181A003D080319112C122C432C0130BF0700304C
:10182A0003180130C007003003180130C107003027
:10183A0003180130C207421C232C242C432C3F08D6
:10184A00B3004008B4004108B5004208B6000130B0
:10185A00B700360DB60CB50CB40CB30CB70B2E2C66
:10186A003608C2003508C1003408C0003308BF007A
:10187A000130C3070318C40A0030C4074408803A79
:10188A00FF0080307F02031D4C2CFF304302031CF3
:10189A004F2C502C5B2C7F3083120313C2008030F4
:1018AA00C1000030C0000030BF00902C8312031327
:1018BA004408803AFF0080307F02031D662C013005
:1018CA0043020318692C6A2C762C00308312031306
:1018DA00C2000030C1000030C0000030BF00B801B3
:1018EA00902C831203134308B3003308BE00FF3061
:1018FA00BF05FF30C0057F30C1050030C2053E1C60
:10190A00872C882C892CC1173E08B3000310330C8E
:10191A00B4003408C2003808B3003308C2044208CD
:10192A00AE004108AD004008AC003F08AB0008001B
:10193A0083120313D700D71FA32CA42C532ED70925
:10194A00D70A5708803A123E031CAC2CAD2C972DAF
:10195A000A30A2000030A3005708F600F701F61B70
:10196A00F7036430F4000030F5000A168A15A7253B
:10197A000A128A15750883120313A5007408A400B5
:10198A000A168A1502260A128A15831203132208D6
:10199A00C90001300310C90DFF3E031DCF2C0310EF
:1019AA00490D593E84000A168A110A200A128A151C
:1019BA00CA000A168A110A200A128A15CB000A16C8
:1019CA008A110A200A128A15CC000A168A110A20DC
:1019DA000A128A15CD004D08AE004C08AD004B081E
:1019EA00AC004A08AB006430A2000030A3005708DC
:1019FA00A400A501A41BA5030A168A1502260A1229
:101A0A008A15831203132208CE0001300310CE0D6B
:101A1A00FF3E031D0B2D03104E0D7D3E84000A165A
:101A2A008A110A200A128A15CF000A168A110A2078
:101A3A000A128A15D0000A168A110A200A128A1571
:101A4A00D1000A168A110A200A128A15D2005208EF
:101A5A00B2005108B1005008B0004F08AF000A1296
:101A6A008A153C210A128A15831203132E08D600FE
:101A7A002D08D5002C08D4002B08D3000A30F40016
:101A8A000030F5005708F600F701F61BF7030A16AF
:101A9A008A15A7250A128A15740883120313C90026
:101AAA0001300310C90DFF3E031D562D0310490DC9
:101ABA00353E84000A168A110A200A128A15CA00BB
:101ACA000A168A110A200A128A15CB000A168A11E6
:101ADA000A200A128A15CC000A168A110A200A124A
:101AEA008A15CD004D08AE004C08AD004B08AC007D
:101AFA004A08AB005608B2005508B1005408B000B5
:101B0A005308AF000A128A153C210A128A15831259
:101B1A0003132E08C8002D08C7002C08C6002B087E
:101B2A00C500FF2F5708803A753E031C9D2D9E2D38
:101B3A00262E0A30F4000030F5005708F600F701A7
:101B4A00F61BF7030A168A15A7250A128A157408BE
:101B5A0083120313C90001300310C90DFF3E031D90
:101B6A00B12D0310490D353E84000A168A110A2048
:101B7A000A128A15CA000A168A110A200A128A1536
:101B8A00CB000A168A110A200A128A15CC000A16F4
:101B9A008A110A200A128A15CD004D08AE004C0897
:101BAA00AD004B08AC004A08AB000A30A200003076
:101BBA00A3005708A400A501A41BA5030A168A15A9
:101BCA0002260A128A15831203132208CE00013054
:101BDA000310CE0DFF3E031DED2D03104E0D593E91
:101BEA0084000A168A110A200A128A15CF000A16D8
:101BFA008A110A200A128A15D0000A168A110A20A6
:101C0A000A128A15D1000A168A110A200A128A159E
:101C1A00D2005208B2005108B1005008B0004F0873
:101C2A00AF000A128A153C210A128A15831203137D
:101C3A002E08C8002D08C7002C08C6002B08C500AE
:101C4A00FF2F5708C90001300310C90DFF3E031DBD
:101C5A00292E0310490D353E84000A168A110A20DE
:101C6A000A128A15CA000A168A110A200A128A1545
:101C7A00CB000A168A110A200A128A15CC000A1603
:101C8A008A110A200A128A15CD004D08C8004C088C
:101C9A00C7004B08C6004A08C500FF2F5708803AFC
:101CAA00123E031C592E5A2E442F0A30A20000302D
:101CBA00A3005708F600F701F61BF7036430F40097
:101CCA000030F5000A168A15A7250A128A15750822
:101CDA0083120313A5007408A4000A168A150226A3
:101CEA000A128A15831203132208C900013003104D
:101CFA00C90DFF3E031D7C2E0310490D253E8400AD
:101D0A000A168A110A200A128A15CA000A168A11A4
:101D1A000A200A128A15CB000A168A110A200A1208
:101D2A008A15CC000A168A110A200A128A15CD00D1
:101D3A004D08AE004C08AD004B08AC004A08AB0099
:101D4A006430A2000030A3005708A400A501A41B18
:101D5A00A5030A168A1502260A128A158312031384
:101D6A002208CE0001300310CE0DFF3E031DB82E0F
:101D7A0003104E0D493E84000A168A110A200A12DF
:101D8A008A15CF000A168A110A200A128A15D0006B
:101D9A000A168A110A200A128A15D1000A168A110D
:101DAA000A200A128A15D2005208B2005108B1005C
:101DBA005008B0004F08AF000A128A153C210A12D7
:101DCA008A15831203132E08D6002D08D5002C0875
:101DDA00D4002B08D3000A30F4000030F50057086D
:101DEA00F600F701F61BF7030A168A15A7250A1249
:101DFA008A15740883120313C90001300310C90D30
:101E0A00FF3E031D032F0310490D013E84000A16ED
:101E1A008A110A200A128A15CA000A168A110A2089
:101E2A000A128A15CB000A168A110A200A128A1582
:101E3A00CC000A168A110A200A128A15CD004D080A
:101E4A00AE004C08AD004B08AC004A08AB0056087F
:101E5A00B2005508B1005408B0005308AF000A1286
:101E6A008A153C210A128A15831203132E08C80008
:101E7A002D08C7002C08C6002B08C500FF2F5708DD
:101E8A00803A753E031C4A2F4B2FD32F0A30F40099
:101E9A000030F5005708F600F701F61BF7030A169B
:101EAA008A15A7250A128A15740883120313C90012
:101EBA0001300310C90DFF3E031D5E2F0310490DAB
:101ECA00013E84000A168A110A200A128A15CA00DB
:101EDA000A168A110A200A128A15CB000A168A11D2
:101EEA000A200A128A15CC000A168A110A200A1236
:101EFA008A15CD004D08AE004C08AD004B08AC0069
:101F0A004A08AB000A30A2000030A3005708A40018
:101F1A00A501A41BA5030A168A1502260A128A1508
:101F2A00831203132208CE0001300310CE0DFF3EA8
:101F3A00031D9A2F03104E0D253E84000A168A119E
:101F4A000A200A128A15CF000A168A110A200A12D2
:101F5A008A15D0000A168A110A200A128A15D10097
:101F6A000A168A110A200A128A15D2005208B200E9
:101F7A005108B1005008B0004F08AF000A128A1584
:101F8A003C210A128A15831203132E08C8002D0851
:101F9A00C7002C08C6002B08C500FF2F5708C90028
:101FAA0001300310C90DFF3E031DD62F0310490D42
:101FBA00013E84000A168A110A200A128A15CA00EA
:101FCA000A168A110A200A128A15CB000A168A11E1
:101FDA000A200A128A15CC000A168A110A200A1245
:101FEA008A15CD004D08C8004C08C7004B08C6002A
:101FFA004A08C5000800FF1B0A2883137F188317A5
:10200A000008840A0319FF0A080010308A0004082D
:10201A00840A820700340034003480343F340034A8
:10202A0000342034413400340034C834423400349B
:10203A0000347A344434003440341C344634003496
:10204A005034C3344734003424347434493480342B
:10205A00963418344B342034BC34BE344C342834CF
:10206A006B346E344E34F934023415345034EC3453
:10207A007834AD346034CA34F234493471340034BB
:10208A00003480343F34CD34CC34CC343D340A343B
:10209A00D73423343C346F34123483343A3417340B
:1020AA00B734D1343834AC34C53427343734BD343A
:1020BA003734863435349534BF34D63433347734B0
:1020CA00CC342B3432345F34703489343034FF34B6
:1020DA00E634DB342E340834E5343C341E346034C0
:1020EA004234A2340D3401340034003400340A344A
:1020FA000034003400346434003400340034E834EA
:10210A000334003400341034273400340034A0344B
:10211A00863401340034403442340F34003480347D
:10212A009634983400340034E134F53405340034FC
:10213A00CA349A343B344634653472346E3461346A
:10214A006E3464346F3446346934673475346534B4
:10215A0072346F3461340034443449344734493476
:10216A00543441344C3420343234003456346F34CD
:10217A006C3474343134003456346F346C347434FF
:10218A003234003425342E3433346634003400308B
:10219A00F8000030F7000030F6000030F500831236
:1021AA00031323082204210420040319DD28DE284E
:1021BA002B29F901F90AEE280130F4000310A00DC9
:1021CA00A10DA20DA30DF40BE3280130F40074084D
:1021DA00F907A31FF128F228E1280130F4000310BF
:1021EA00F50DF60DF70DF80DF40BF4282308270268
:1021FA00031D092922082602031D0929210825028F
:10220A00031D092920082402031C0C290D291C2955
:10221A002008A4022108031C210FA5022208031C7E
:10222A00220FA6022308031C230FA70275140130EC
:10223A000310A30CA20CA10CA00CFF3E031D1D2928
:10224A000130F902031D2A292B29F2287808A30054
:10225A007708A2007608A1007508A000080083127A
:10226A000313B300330803193B293C295029AE1F35
:10227A003F29402950292B09B5002C09B6002D0900
:10228A00B7002E09B800B50A0319B60A0319B70A26
:10229A000319B80A58292E08B8002D08B7002C08C7
:1022AA00B6002B08B5002E082D042C042B04031DA0
:1022BA005F29602969290030AE000030AD00003086
:1022CA00AC000030AB00EF299630AF002F08B40005
:1022DA007B290130AF002F08B40701300310B80C76
:1022EA00B70CB60CB50CFF3E031D7329FE3038053A
:1022FA00031D802981296E299D290130AF002F08ED
:10230A00B4070130B507003003180130B6070030B2
:10231A0003180130B707003003180130B80701303D
:10232A000310B80CB70CB60CB50CFF3E031D95296B
:10233A00FF303805031DA229A3298229AF290130BC
:10234A00B4020130AF000310B50DB60DB70DB80DCC
:10235A00AF0BA829B71BB229B329B9290230340215
:10236A000318B829B929A4293418BC29BD29C529B3
:10237A00FF30B505FF30B6057F30B705FF30B80529
:10238A000310B40C3408AF00B001B101B201183027
:10239A000310AF0DB00DB10DB20DFF3E031DCD29D7
:1023AA002F08B5043008B6043108B7043208B80457
:1023BA0033080319E129E229E729AE1FE529E629AD
:1023CA00E729B8173808AE003708AD003608AC0060
:1023DA003508AB000800831203132008F400210813
:1023EA00F5002208F6000310750D760DF700770840
:1023FA00AD002D08031D022A032A0C2A0030A3006F
:10240A000030A2000030A1000030A000AC2A24084D
:10241A00F4002508F5002608F6000310750D760D60
:10242A00F7007708AC002C08031D1C2A1D2A1E2A57
:10243A00032AA117FF30A005FF30A1050030A2052D
:10244A00A517FF30A405FF30A5050030A60500300A
:10245A00AB000030AA000030A9000030A8007F308D
:10246A00AD0298302C07F4007408AD021830F4005D
:10247A007408AC000130F4000310A80DA90DAA0DD0
:10248A00AB0DF40B412A26082202031D522A250805
:10249A002102031D522A24082002031C552A562A07
:1024AA00612A2408A0022508031C250FA102260878
:1024BA00031C260AA202281401300310A00DA10D44
:1024CA00A20DFF3E031D622A0130AC02031D6E2AD3
:1024DA006F2A3F2AAD1F722A732A8D2A2D08803A45
:1024EA00973E0318792A7A2A7B2A032A0130031095
:1024FA00AB0CAA0CA90CA80CFF3E031D7C2A0130C8
:10250A00F4007408AD07031D8B2A8C2A7B2AA42A9F
:10251A0018302D02031C922A932A9F2A032A01307B
:10252A00F4000310A80DA90DAA0DAB0DF40B962A01
:10253A000130AD022D08031DA32AA42A942A2B08D0
:10254A00A3002A08A2002908A1002808A000080060
:10255A00031083120313220D230DF4007408AD0037
:10256A002D08031DB92ABA2AC32A0030A300003055
:10257A00A2000030A1000030A0006A2B0310260D33
:10258A00270DF4007408AC002C08031DCD2ACE2AAE
:10259A00CF2ABA2AA217FF30A005FF30A105FF30C3
:1025AA00A2050030A305A617FF30A405FF30A50534
:1025BA00FF30A6050030A7050030AB000030AA00A6
:1025CA000030A9000030A8007F30AD02A0302C07EF
:1025DA00F4007408AD022030F4007408AC00013035
:1025EA00F4000310A80DA90DAA0DAB0DF40BF62AE1
:1025FA0027082302031D0B2B26082202031D0B2B7F
:10260A0025082102031D0B2B24082002031C0E2B74
:10261A000F2B1E2B2408A0022508031C250FA1023C
:10262A002608031C260FA2022708031C270FA30251
:10263A0028140130F4000310A00DA10DA20DA30D62
:10264A00F40B202B0130AC02031D2C2B2D2BF42A6A
:10265A00AD1F302B312B4B2B2D08803A9F3E031890
:10266A00372B382B392BBA2A01300310AB0CAA0CA2
:10267A00A90CA80CFF3E031D3A2B0130F400740884
:10268A00AD07031D492B4A2B392B622B20302D0213
:10269A00031C502B512B5D2BBA2A0130F400031076
:1026AA00A80DA90DAA0DAB0DF40B542B0130AD02E8
:1026BA002D08031D612B622B522B2B08A3002A081D
:1026CA00A2002908A1002808A00008008312031309
:1026DA00D8006E305802031C732B742B832C3F30A6
:1026EA00AE000030AD000030AC000030AB0064300A
:1026FA00A0000030A1005808C900CA014908A20078
:10270A004A08A3000A168A15C1240A168A118312D6
:10271A0003132008CB0001300310CB0DFF3E031D2D
:10272A00912B03104B0D7D3E84000A168A110A2054
:10273A000A168A11CC000A168A110A200A168A1168
:10274A00CD000A168A110A200A168A11CE000A1624
:10275A008A110A200A168A11CF004F08B2004E08C1
:10276A00B1004D08B0004C08AF000A128A153C218E
:10277A000A168A11831203132E08D7002D08D600D1
:10278A002C08D5002B08D4000A30A0000030A10084
:10279A005808C900CA014908F6004A08F700643017
:1027AA00F4000030F5000A128A1505200A168A116B
:1027BA00750883120313A3007408A2000A168A1567
:1027CA00C1240A168A11831203132008CB00013090
:1027DA000310CB0DFF3E031DED2B03104B0D593E8D
:1027EA0084000A168A110A200A168A11CC000A16CF
:1027FA008A110A200A168A11CD000A168A110A209D
:10280A000A168A11CE000A168A110A200A168A1195
:10281A00CF004F08AE004E08AD004D08AC004C0882
:10282A00AB005708B2005608B1005508B00054086A
:10283A00AF000A128A153C210A168A118312031361
:10284A002E08D3002D08D2002C08D1002B08D00066
:10285A000A30F4000030F5005808C900CA014908D6
:10286A00F6004A08F7000A128A1505200A168A1184
:10287A00740883120313CB0001300310CB0DFF3E03
:10288A00031D422C03104B0D353E84000A168A1193
:10289A000A200A168A11CC000A168A110A200A1678
:1028AA008A11CD000A168A110A200A168A11CE0048
:1028BA000A168A110A200A168A11CF004F08AE009A
:1028CA004E08AD004D08AC004C08AB005308B200EE
:1028DA005208B1005108B0005008AF000A128A1518
:1028EA003C210A168A11831203132E08C8002D08E8
:1028FA00C7002C08C6002B08C500772D0B305802DC
:10290A00031C882C892C342D3F30AE000030AD00DA
:10291A000030AC000030AB000A30A0000030A1004B
:10292A005808C900CA014908A2004A08A3000A16A1
:10293A008A15C1240A168A11831203132008CB00B0
:10294A0001300310CB0DFF3E031DA62C03104B0DC7
:10295A00593E84000A168A110A200A168A11CC00E6
:10296A000A168A110A200A168A11CD000A168A1135
:10297A000A200A168A11CE000A168A110A200A1695
:10298A008A11CF004F08B2004E08B1004D08B000BE
:10299A004C08AF000A128A153C210A168A118312C2
:1029AA0003132E08D7002D08D6002C08D5002B08B3
:1029BA00D4000A30F4000030F5005808C900CA01F2
:1029CA004908F6004A08F7000A128A1505200A166D
:1029DA008A11740883120313CB0001300310CB0D44
:1029EA00FF3E031DF32C03104B0D353E84000A16DF
:1029FA008A110A200A168A11CC000A168A110A209C
:102A0A000A168A11CD000A168A110A200A168A1194
:102A1A00CE000A168A110A200A168A11CF004F0818
:102A2A00AE004E08AD004D08AC004C08AB0057088C
:102A3A00B2005608B1005508B0005408AF000A1297
:102A4A008A153C210A168A11831203132E08C8001C
:102A5A002D08C7002C08C6002B08C500772D3F306B
:102A6A00AE000030AD000030AC000030AB005808BA
:102A7A00C90001300310C90DFF3E031D3F2D03108D
:102A8A00490D353E84000A168A110A200A168A114F
:102A9A00CA000A168A110A200A168A11CB000A16D7
:102AAA008A110A200A168A11CC000A168A110A20EB
:102ABA000A168A11CD004D08B2004C08B1004B0825
:102ACA00B0004A08AF000A128A153C210A168A1178
:102ADA00831203132E08C8002D08C7002C08C6004D
:102AEA002B08C5000800831203135C088039E10033
:102AFA006108E9005C08E1006107E2006208EB0096
:102B0A00DB1F882D892D8A2D6B146B0803198E2DD6
:102B1A008F2D9F2D6B0A031D932D942D9C2D003014
:102B2A00DC000030DB000030DA000030D900DB17AF
:102B3A00DC01A72D0030DC000030DB000030DA00B9
:102B4A000030D90060088039E1006108EA006A08AB
:102B5A0069060319B12DB22DB32D69176008E1007A
:102B6A006107E2006208EA00DF1FBC2DBD2DBE2D01
:102B7A006A146A080319C22DC32DD32D6A0A031DCC
:102B8A00C72DC82DD02D0030E0000030DF00003006
:102B9A00DE000030DD00DF17E001DB2D0030E00051
:102BAA000030DF000030DE000030DD006B086A0212
:102BBA000318E02DE12D252E691FE42DE52DE92DC1
:102BCA008030E1006108E9066B08E1006108EC0069
:102BDA006A08E1006108EB006C08E1006108EA009C
:102BEA005908E1006108EC005D08E1006108D900BC
:102BFA006C08E1006108DD005A08E1006108EC0098
:102C0A005E08E1006108DA006C08E1006108DE0094
:102C1A005B08E1006108EC005F08E1006108DB0085
:102C2A006C08E1006108DF005C08E1006108EC0063
:102C3A006008E1006108DC006C08E1006108E0005E
:102C4A00EC016A08E100E2016208E4006B08610233
:102C5A00E300031CE4036408803AFF0080307F022B
:102C6A00031D392E1A306302031C3C2E3D2E7A2E88
:102C7A00831203135C085B045A045904031D462E8D
:102C8A00482E0130492E0030E1006108EC00003086
:102C9A00DC000030DB000030DA000030D9006A08BE
:102CAA00E1006108EB00822E6C1C5C2E5D2E662E04
:102CBA006C08E1000310610C0138E2006208EC00C4
:102CCA00682E0310EC0C591C6B2E6C2E6D2EEC1713
:102CDA000130E1005C0DDC0CDB0CDA0CD90CE10BE9
:102CEA006F2E0130E1006108EB07831203136A08B3
:102CFA006B02031C812E822E592E691B852E862E6D
:102D0A00D12E6B08031D8A2E8B2E942E0030DC00E8
:102D1A000030DB000030DA000030D900FF2F5D08F8
:102D2A00D9075E0803110318013E03199D2EDA071D
:102D3A005F0803110318013E0319A42EDB0760087C
:102D4A0003110318013E0319AB2EDC075C1CAE2EDF
:102D5A00AF2E852F6C1CB22EB32EBC2E6C08E10050
:102D6A000310610C0138E2006208EC00BE2E031069
:102D7A00EC0C591CC12EC22EC32EEC170130E100F7
:102D8A005C0DDC0CDB0CDA0CD90CE10BC52E013026
:102D9A00E1006108EB07852F5C08803AFF006008B4
:102DAA00803A7F02031DE32E5F085B02031DE32EB8
:102DBA005E085A02031DE32E5D0859020318E62E27
:102DCA00E72E3F2FFF30E100FF30E200FF30E30043
:102DDA00FF30E4005D08E5005E08E6005F08E700F2
:102DEA006008E8005908E5025A08031C5A0FFE2E2B
:102DFA00FF2EE6025B08031C5B0F042F052FE70278
:102E0A005C08031C5C0F0A2F0B2FE8026508E10718
:102E1A0066080318660F122F132FE20767080318B4
:102E2A00670F182F192FE30768080318680AE407C1
:102E3A006408DC006308DB006208DA006108D90074
:102E4A008030E1006108E906EC09EC0A6C08031D10
:102E5A002F2F302F4D2F0130D907003003180130A2
:102E6A00DA07003003180130DB070030031801309D
:102E7A00DC074D2F5D08D9025E08031C5E0FDA02DB
:102E8A005F08031C5F0FDB026008031C600FDC0293
:102E9A005C085B045A045904031D542F552F812FD3
:102EAA006C08031D592F5A2F812F0030DC00003087
:102EBA00DB000030DA000030D900FF2F0130E100DA
:102ECA000310D90DDA0DDB0DDC0DE10B652FEC1FBC
:102EDA006F2F702F712F59146C1C742F752F782F28
:102EEA000314EC0D7A2F0310EC0D6B0803197E2FD7
:102EFA007F2F812F0130EB02DB1F842F852F632F59
:102F0A00EA01EC1F892F8A2F982F6C087F39031941
:102F1A008F2F902F932FEA01EA0A982F591C962F88
:102F2A00972F982F902F6A0803199C2F9D2FD12F26
:102F3A000130D907003003180130DA0700300318CE
:102F4A000130DB07003003180130DC075C1CAE2FB0
:102F5A00AF2FD12F5908E1005A08E2005B08E300BD
:102F6A005C08E4000130E500640DE40CE30CE20CBB
:102F7A00E10CE50BB92F6408DC006308DB0062088A
:102F8A00DA006108D9006B0A0319CC2FCD2FD12F93
:102F9A000130E1006108EB076B0A0319D52FD62F20
:102FAA00DB2F6B08031DDA2FDB2FE92F0030DC0043
:102FBA000030DB000030DA000030D9006B08031D56
:102FCA00E72FE82FE92FE9016B1CEC2FED2FEF2FEC
:102FDA00DB17F32F7F30E1006108DB056B08E100A6
:102FEA000310610CE2006208DC00E91FFD2FFE2FCE
:062FFA00FF2FDC170800A8
:1036920077087604750474040319502B512B532BAD
:1036A2008030F706080000300A168A1583230A16AE
:1036B2008A1501300A168A1583230A168A1508000C
:1036C200F5008312031308157508860088151D304E
:1036D200F400F40B6A2B6D2B83120313881108007C
:1036E200F500F4013A3075020318782B792B812BFF
:1036F20030307502031C7E2B7F2B812BF401F40AE0
:10370200740C0800F6008312031308117608860071
:1037120088150C30F500AF30F400F40B8E2BF50B4E
:103722008E2B831203138811080083160317880156
:1037320089010330831603138500860188018316ED
:10374200031708148814831203131F148316031318
:103752009F138B170B170C17831203130C130800FC
:10376200831203130C1FB62BB72BCC2B0C131E0882
:10377200F000F101700883160313D8007108D90014
:10378200831203131E08F000F1017008831603135D
:10379200D6007108D70073088A00720E8300FE0EED
:1037A2007E0E0900F801F901741CD82BD92BDF2BEE
:1037B2007608F8070318F90A7708F90701300310A9
:1037C200F60DF70DFF3E031DE02B01300310F50C43
:1037D200F40CFF3E031DE72B74087504031DF22B46
:1037E200F32BD52B7908F5007808F4000800831232
:1037F2000313A0002003031DFF2B002C0C2C7708C1
:103802007F3EF8007808A10021080A168A15832352
:103812000A168A151D2C02302006031D112C122CAB
:103822001D2C7708BF3EF8007808A10021080A166F
:103832008A1583230A168A15080083120313A4002B
:10384200A001A1017408F600F7017608A20077082A
:10385200A300241C2D2C2E2C342C2208A007031884
:10386200A10A2308A10701300310A20DA30DFF3EF8
:10387200031D352C0310A40C2408031D412C422CDB
:103882002A2C2108F5002008F400080083120313F3
:10389200081100300A168A1583230A168A152C305D
:1038A200F800D330F700F70B542CF80B542C592C9A
:1038B20030300A168A1583230A168A157730F700E4
:1038C200F70B612C642C38300A168A1583230A16EA
:1038D2008A1501300A168A1583230A168A150630BC
:1038E2000A168A1583230A168A150F300A168A15B4
:1038F20083230A168A150800F801F901A22C780818
:103902007607A1007708A0000318A00AF81F8A2CE6
:10391200A003831203132008A2002208FF0021083B
:1039220084000A168A1100200A168A150A168A15B8
:1039320061230A168A150130F8070318F90A0030C4
:10394200F9077808760783120313A1007708A0000D
:103952000318A00AF81FAE2CA00383120313200839
:10396200A2002208FF00210884000A168A11002002
:103972000A168A15003A031DBF2CC02C802C0800A1
:1039820083120313A501A601200821040319CA2CDE
:10399200CB2C022DA701A70AD92C01300310A00DB0
:1039A200A10DFF3E031DCF2C0130A4002408A70760
:1039B200A11FDC2CDD2CCE2C01300310A50DA60D91
:1039C200FF3E031DDE2C21082302031DEA2C2008E2
:1039D2002202031CED2CEE2CF52C2008A202210859
:1039E200031CA303A302251401300310A10CA00C95
:1039F200FF3E031DF62C0130A702031D012D022DEF
:103A0200DD2C2608A1002508A00008000030831242
:103A120003132005F40000302105F5008030220553
:103A2200F6007F302305F7007708760475047404E6
:103A3200031D1C2D1D2D252D0030A3000030A200DA
:103A42000030A1000030A00000302405F400003056
:103A52002505F50080302605F6007F302705F700A2
:103A62007708760475047404031D382D392D412D11
:103A72000030A7000030A6000030A5000030A400EE
:103A820027082306031D4F2D26082206031D4F2D4E
:103A920025082106031D4F2D240820060319522D47
:103AA200532D552D0310562D031408008030831614
:103AB2000313A306270883120313DC0083160313E0
:103AC200260883120313DB008316031325088312CF
:103AD2000313DA0083160313240883120313D90095
:103AE20083160313230883120313E00083160313C0
:103AF200220883120313DF008316031321088312A3
:103B02000313DE0083160313200883120313DD0060
:103B12000A168A1178250A168A15831203135C087D
:103B220083160313A300831203135B088316031384
:103B3200A200831203135A0883160313A1008312EF
:103B42000313590883160313A000080083120313FA
:103B5200A101F71FAD2DAE2DB52DF609F709F60A15
:103B62000319F70AA101A10AF51FB82DB92DBE2D1F
:103B7200F409F509F40A0319F50A7408750403191E
:103B8200C32DC42DF32DA001A00AD22D01300310A4
:103B9200F40DF50DFF3E031DC82D0130F800780825
:103BA200A007F51FD52DD62DC72D75087702031D49
:103BB200DC2D74087602031CDF2DE02DE62D74083F
:103BC200F6027508031CF703F70201300310F50C27
:103BD200F40CFF3E031DE72D0130A002031DF22D60
:103BE200F32DD62D21080319F72DF82DFD2DF609F9
:103BF200F709F60A0319F70A7708F5007608F400C0
:103C0200080083120313A801A31F082E092E102EE9
:103C1200A209A309A20A0319A30AA801A80AA51FB7
:103C2200132E142E1D2EA409A509A40A0319A50AF0
:103C32000130A6002608A806A901AA012208230429
:103C42000319242E252E5C2EA701A70A332E01303C
:103C52000310A20DA30DFF3E031D292E0130A60065
:103C62002608A707A31F362E372E282E0130031051
:103C7200A90DAA0DFF3E031D382E23082502031DA0
:103C8200442E22082402031C472E482E4F2E2208BF
:103C9200A4022308031CA503A50229140130031062
:103CA200A30CA20CFF3E031D502E0130A702031DE0
:103CB2005B2E5C2E372E28080319602E612E662E8D
:103CC200A909AA09A90A0319AA0A2A08A300290804
:103CD200A20008000A168A1596230A168A150A16E1
:103CE2008A1547240A168A15F701F70A01300A16BF
:103CF2008A15F8230A168A15A230F6008030F700DA
:103D02000A168A157D240A168A15F701F70A023067
:103D12000A168A15F8230A168A159130F6008030A1
:103D2200F7000A168A157D240A168A1502308316B0
:103D32000313CD002530CC003130CB00CB0B9F2EAE
:103D4200CC0B9F2ECD0B9F2E0A168A1554230A16D2
:103D52008A15F701F70A01300A168A15F8230A169E
:103D62008A15AC30F6008030F7000A168A157D24D9
:103D72000A168A15073083160313CB004B08F70087
:103D820001300A168A15F8230A168A15B230F6008F
:103D92008030F7000A168A157D240A168A1501302A
:103DA2000A128A153F200A168A1500300A128A154D
:103DB2003F200A168A15D02E0A128A110C280310E7
:103DC200831203135A0D5B0DDC005C08E2006208EB
:103DD200031DEC2EED2EF62E0030DB000030DA0053
:103DE2000030D9000030D8005B2F5808DC00590899
:103DF200DD005A08DE005B08DF001F300310DF0C15
:103E0200DE0CDD0CDC0CFF3E031DFF2E5C08E00027
:103E12006008E100DA17FF30D805FF30D905FF301E
:103E2200DA050030DB059630E202E21F192F1A2F65
:103E3200342F6208803A973E0318202F212F222F19
:103E4200ED2E01300310DB0CDA0CD90CD80CFF3E3E
:103E5200031D232F0130DC005C08E207031D322F13
:103E6200332F222F4B2F20306202031C392F3A2F7F
:103E7200462FED2E0130DC000310D80DD90DDA0DDE
:103E8200DB0DDC0B3D2F0130E2026208031D4A2FDD
:103E92004B2F3B2F610803194F2F502F5B2FD8094F
:103EA200D909DA09DB09D80A0319D90A0319DA0A86
:103EB2000319DB0A08000030831203132005F40003
:103EC20000302105F50080302205F6007F30230501
:103ED200F7007708760475047404031D712F722F9E
:103EE2007A2F0030A3000030A2000030A100003081
:103EF200A00000302405F40000302505F5008030D4
:103F02002605F6007F302705F7007708760475044A
:103F12007404031D8D2F8E2F962F0030A7000030C2
:103F2200A6000030A5000030A400A31F992F9A2FED
:103F3200BE2F0030F4000030F5000030F600803073
:103F4200F7002008F4022108031C210FA92FAA2F31
:103F5200F5022208031C220FAF2FB02FF60223080E
:103F6200031C230FB52FB62FF7027708A30076089C
:103F7200A2007508A1007408A000A71FC12FC22FBC
:103F8200E62F0030F4000030F5000030F6008030FB
:103F9200F7002408F4022508031C250FD12FD22F85
:103FA200F5022608031C260FD72FD82FF602270862
:103FB200031C270FDD2FDE2FF7027708A7007608F4
:103FC200A6007508A5007408A4008030A3068030FE
:103FD200A70627082302031DF82F26082202031D25
:103FE200F82F25082102031DF82F240820020318A8
:0E3FF200FB2FFC2FFE2F0310FF2F03140800DF
:04400E00D420FF3F7C
:00000001FF
