:020000040000FA
:060000000A128A110C280F
:10000800FE00030EF3000A08F4000A168A154029B8
:100018000A128A110F2883160313D301D401D501BC
:10002800D601D701D801D90183010A168A15DE2B1A
:1000380083160313C300A930AD002D08B6006F2F37
:1000480025304A06031929282A2836284A08AD00E7
:10005800430884002D08831380000130AD002D086B
:10006800C3076F2FB701B801280884000A128A1540
:100078000A200A128A112E3A031D43284428892887
:1000880038170130AD002D08A807C401C50178282C
:100098000A30F5000030F600831603134508F8000F
:1000A8004408F7000A168A1590210A128A11760860
:1000B80083160313C5007508C400280884000A12B3
:1000C8008A150A200A128A11D03EAD00FF300318A3
:1000D8000030AE002D08C4070318C50A2E08C5074E
:1000E8000130AD002D08A807280884000A128A15D7
:1000F8000A200A128A110A168A15F2200A128A118F
:100108000318872888284C288F28C401C501381669
:100118008F283815AB28013083160313A807FF3042
:10012800280784000A128A150A200A128A11CA00AE
:10013800AD00AE012E08003A0319A3286F2F2D0831
:10014800003A0319812F663A03198D286F2F003062
:100158003705AD0007303805AE002D082E04031909
:10016800B628B7282A2F381EBA28BB28BF28063039
:10017800C4000030C5003608840083130008C60098
:10018800840A0008C700840A0008C800840A000816
:10019800C9000430AD002D08B607490883120313BF
:1001A800A30083160313480883120313A2008316BF
:1001B8000313470883120313A10083160313460889
:1001C80083120313A0000030A7000030A6000030FF
:1001D800A5000030A4000A168A150F250A128A11F4
:1001E8000318F728F8281529831603134908F80077
:1001F8004808F7004708F6004608F5000A168A1569
:10020800E7200A128A11780883160313C9007708B1
:10021800C8007608C7007508C6000330B704003068
:10022800B80483160313BD01BE01490883120313E2
:10023800A30083160313480883120313A20083162E
:100248000313470883120313A100831603134608F8
:1002580083120313A0000030A7000030A60000306E
:10026800A5000030A4000A168A15E8220A128A118D
:1002780003183F2940295C2A031083160313480DED
:10028800490D823EBD00FF3003180030BE00FF302C
:10029800BD070318BE0AFF30BE070330F500003063
:1002A800F6003E08F8003D08F7000A168A15902166
:1002B8000A128A11760883160313BE007508BD005A
:1002C8000A3083120313A3000030A400831603131B
:1002D8003E0883120313A600831603133D088312F6
:1002E8000313A5000A128A1186270A128A1183129B
:1002F8000313240883160313BE0083120313230871
:1003080083160313BD00BE1F8A298B299129FF304C
:10031800BD070318BE0AFF30BE073D03FF3A0A12A5
:100328008A159D240A128A11831203134908831619
:100338000313C20083120313480883160313C10072
:1003480083120313470883160313C0008312031391
:10035800460883160313BF00490883120313AF002E
:1003680083160313480883120313AE00831603137E
:10037800470883120313AD0083160313460883123C
:100388000313AC0083160313420883120313B3004C
:1003980083160313410883120313B2008316031351
:1003A800400883120313B100831603133F08831216
:1003B8000313B0000A128A153C210A128A1183120B
:1003C80003132F0883160313C200831203132E0886
:1003D80083160313C100831203132D088316031316
:1003E800C000831203132C0883160313BF004208AE
:1003F80083120313A3008316031341088312031304
:10040800A20083160313400883120313A100831666
:1004180003133F0883120313A0003F30A700803066
:10042800A6000030A5000030A4000A168A150F2582
:100438000A128A110318212A222A2B2AFF3083162E
:100448000313BD070318BE0AFF30BE075C2A8316D4
:100458000313420883120313A300831603134108EE
:1004680083120313A2008316031340088312031395
:10047800A100831603133F0883120313A000413021
:10048800A7002030A6000030A5000030A4000A16FE
:100498008A150F250A128A11031C532A542A5C2A2A
:1004A800013083160313BD070318BE0A0030BE07C8
:1004B800831603134508803AFF0080307F02031D2E
:1004C800672A0D30440203186A2A6B2AB22A831657
:1004D800031344080A168A116B230A128A1183121D
:1004E80003134908DD004808DC004708DB0046081C
:1004F800DA0083160313490883120313E1008316F5
:100508000313480883120313E000831603134708F4
:1005180083120313DF0083160313460883120313A1
:10052800DE000A168A1178250A128A11831203132B
:100538005D0883160313C900831203135C0883162E
:100548000313C800831203135B0883160313C70041
:10055800831203135A0883160313C6008316031362
:100568003E08803AFF0080307F02031DBD2A0A3012
:100578003D020318C02AC12A202B831603134908F9
:1005880083120313A300831603134808831203136B
:10059800A20083160313470883120313A1008316CE
:1005A8000313460883120313A0000030A70000308D
:1005B800A6000030A5000030A4000A168A15E8221B
:1005C8000A128A110318E92AEA2ACC2B8316031384
:1005D800490883120313DC008316031348088312A7
:1005E8000313DB0083160313470883120313DA008F
:1005F80083160313460883120313D9000A168A15B3
:1006080093240A128A11831203135C085B045A04A8
:100618005904031D102B112BCC2B831603133E08F2
:10062800803AFF0080307F02031D1C2B02303D0200
:10063800031C1F2B202BCC2B831603134208831279
:100648000313A30083160313410883120313A200A4
:1006580083160313400883120313A10083160313A0
:100668003F0883120313A0004030A7008930A6007A
:100678007030A5005F30A4000A168A150F250A12EB
:100688008A110318482B492B522BF7308316031372
:10069800BD070318BE0AFF30BE075A2BF830831671
:1006A8000313BD070318BE0AFF30BE073D080A1230
:1006B8008A159D240A128A11831203134908831686
:1006C8000313C20083120313480883160313C100DF
:1006D80083120313470883160313C00083120313FE
:1006E800460883160313BF00490883120313A300A7
:1006F80083160313480883120313A20083160313F7
:10070800470883120313A1008316031346088312B4
:100718000313A00083160313420883120313A700D0
:1007280083160313410883120313A60083160313C9
:10073800400883120313A500831603133F0883128E
:100748000313A4000A168A11D0200A128A118312F0
:100758000313230883160313BC0083120313220810
:1007680083160313BB008312031321088316031394
:10077800BA0083120313200883160313B90000304C
:10078800C9000030C8000030C7000030C600322C55
:1007980083160313490883120313DC00831603131B
:1007A800480883120313DB008316031347088312D8
:1007B8000313DA0083160313460883120313D900C0
:1007C8000A168A1593240A128A11831203135C08E5
:1007D80083160313BC00831203135B0883160313E9
:1007E800BB00831203135A0883160313BA0083123B
:1007F8000313590883160313B9003C08F8003B0893
:10080800F7003A08F6003908F50000300A168A158C
:10081800B3250A128A11780883160313A3007708F0
:10082800A2007608A1007508A0004908A70048089A
:10083800A6004708A5004608A4000A168A1538230A
:100848000A128A11831603132308C9002208C80054
:100858002108C7002008C600BD01BE01CA01CA0A96
:100868004A08AD0001300310AD0DFF3E031D372CC3
:1008780003102D0D693E84000A128A150A200A12F7
:100888008A11AE000A128A150A200A128A11AF00CC
:100898000A128A150A200A128A11B0000A128A1549
:1008A8000A200A128A11B10031083C02031D662C85
:1008B80030083B02031D662C2F083A02031D662CE4
:1008C8002E0839020318692C6A2C6B2C752C013000
:1008D800AD002D08CA070A304A06031D742C752C72
:1008E800342C03303705AD0000303805AE002D0834
:1008F8002E040319802C812C332D2D30AD00430894
:1009080084002D08831380000130AD002D08C30733
:10091800332D4A08AD0001300310AD0DFF3E031D15
:10092800902C03102D0D693E84000A128A150A20A6
:100938000A128A1183120313A0000A128A150A20C8
:100948000A128A11A1000A128A150A200A128A11AB
:10095800A2000A128A150A200A128A11A300831615
:1009680003133C0883120313A700831603133B08E1
:1009780083120313A600831603133A088312031382
:10098800A50083160313390883120313A4000A125F
:100998008A15D4200A128A11831203132308831696
:1009A8000313C20083120313220883160313C10022
:1009B80083120313210883160313C0008312031341
:1009C800200883160313BF00003083120313A3000B
:1009D8000030A2000030A1000A30A00083160313E3
:1009E800420883120313A7008316031341088312D6
:1009F8000313A60083160313400883120313A500EC
:100A0800831603133F0883120313A4000A168A15DA
:100A180088230A128A1183120313230883160313E7
:100A2800C20083120313220883160313C100831222
:100A38000313210883160313C0008312031320082D
:100A480083160313BF003F08303EAD0043088400FF
:100A58002D08831380000130AD002D08C307013035
:100A6800CA024A0A031D392D3A2D8D2C4E2D3030DD
:100A780083160313AD00430884002D0883138000F8
:100A88000130AD002D08C307FF30BD070318BE0AAB
:100A9800FF30BE073E08803AFF0080307F02031D0A
:100AA800572D01303D0203185A2D5B2D3B2D83161F
:100AB80003134508803AFF0080307F02031D662D2E
:100AC80009304402031C692D6A2D712D08308316E4
:100AD8000313AD002D08CA00772D831603134408AD
:100AE800AD002D08CA004A08AD00AE012D08C402A9
:100AF8002E08031CC503C5024A080319842D852D39
:100B0800902D2E30AD00430884002D0883138000FB
:100B18000130AD002D08C3074A080A128A159D2422
:100B28000A128A1183120313490883160313B500A6
:100B380083120313480883160313B40083120313A4
:100B4800470883160313B30083120313460883165A
:100B58000313B200350883120313B300831603137B
:100B6800340883120313B200831603133308831265
:100B78000313B10083160313320883120313B00062
:100B880083160313490883120313AF008316031354
:100B9800480883120313AE00831603134708831211
:100BA8000313AD0083160313460883120313AC0026
:100BB8000A128A153C210A128A11831203132F087C
:100BC800DC002E08DB002D08DA002C08D9000A16F4
:100BD8008A1593240A128A11831203135C08831658
:100BE8000313BC00831203135B0883160313BB00B3
:100BF800831203135A0883160313BA0083120313CC
:100C0800590883160313B9000A2F4A08AD000130AA
:100C18000310AD0DFF3E031D0C2E03102D0D693E74
:100C280084000A128A150A200A128A1183120313F1
:100C3800A0000A128A150A200A128A11A1000A12B3
:100C48008A150A200A128A11A2000A128A150A2095
:100C58000A128A11A300831603133C088312031394
:100C6800A700831603133B0883120313A6008316F9
:100C780003133A0883120313A500831603133908D4
:100C880083120313A4000A128A15D4200A128A11A7
:100C980083120313230883160313C200831203135A
:100CA800220883160313C100831203132108831635
:100CB8000313C00083120313200883160313BF0015
:100CC800003083120313A3000030A2000030A100FB
:100CD8000A30A00083160313420883120313A700E7
:100CE80083160313410883120313A6008316031304
:100CF800400883120313A500831603133F088312C9
:100D08000313A4000A168A1588230A128A1183126B
:100D18000313230883160313C20083120313220844
:100D280083160313C10083120313210883160313C8
:100D3800C00083120313200883160313BF003F0863
:100D4800303EAD00430884002D0883138000013035
:100D5800AD002D08C3074A08AD0001300310AD0DE2
:100D6800FF3E031DB22E03102D0D693E84000A12AA
:100D78008A150A200A128A1183120313A0000A1284
:100D88008A150A200A128A11A1000A128A150A2055
:100D98000A128A11A2000A128A150A200A128A1156
:100DA800A300831603133C0883120313A7008316BA
:100DB80003133B0883120313A600831603133A0890
:100DC80083120313A5008316031339088312031330
:100DD800A4000A168A1588230A128A11831203139B
:100DE800230883160313BC008312031322088316F7
:100DF8000313BB0083120313210883160313BA00DD
:100E080083120313200883160313B9000130CA02A2
:100E18004A0A031D102F112F092E232F3030AD0041
:100E2800430884002D08831380000130AD002D088D
:100E3800C307FF30C4070318C50AFF30C5074408B5
:100E48004504031D282F292F122F6F2F440845040E
:100E5800031D2F2F302F3E2F3C083B043A04390442
:100E6800031D372F382F3E2F0130C4070318C50A3A
:100E78000030C5074508803A803C031D452F4408CB
:100E88004A020318482F492F4A2F592F8316031354
:100E98004508803AAD0080302D02031D552F4A08C1
:100EA80044020318582F592F592F03308316031360
:100EB8003705AD0000303805AE002D082E040319A3
:100EC800662F672F6F2F2D30AD00430884002D0843
:100ED8008313800031280130A807FF3028078400D9
:100EE8000A128A150A200A128A11AD002D08CA00B2
:100EF8004A08031D802F812F242843088400831368
:100F08008001080083120313A901A41F8C2F8D2FC1
:100F1800942FA309A409A30A0319A40AA901A90AD9
:100F2800A61F972F982FA12FA509A609A50A03196F
:100F3800A60A0130A7002708A906AA01AB012308C1
:100F480024040319A82FA92FE02FA801A80AB72F56
:100F580001300310A30DA40DFF3E031DAD2F01307A
:100F6800A7002708A807A41FBA2FBB2FAC2F013052
:100F78000310AA0DAB0DFF3E031DBC2F240826024B
:100F8800031DC82F23082502031CCB2FCC2FD32FDA
:100F98002308A5022408031CA603A6022A1401306C
:100FA8000310A40CA30CFF3E031DD42F0130A8028C
:100FB800031DDF2FE02FBB2F29080319E42FE52F8E
:100FC800EA2FAA09AB09AA0A0319AB0A2B08A4003D
:100FD8002A08A3000800F6008312031308157608F0
:100FE800860088151D30F500F50BF82FFB2F8312AE
:060FF8000313881108003C
:10100000FF1B0A2883137F1883170008840A03191B
:10101000FF0A080008308A000408840A82070034A6
:101020000034003480343F34003400342034413400
:1010300000340034C8344234003400347A34443448
:10104000003440341C34463400345034C334473404
:1010500000342434743449348034963418344B3496
:101060002034BC34BE344C3428346B346E344E34AB
:10107000F934023415345034EC347834AD346034FF
:10108000CA34F234493471340034003480343F348B
:10109000CD34CC34CC343D340A34D73423343C34CE
:1010A0006F34123483343A341734B734D13438348B
:1010B000AC34C53427343734BD3437348634353412
:1010C0009534BF34D63433347734CC342B34323483
:1010D0005F34703489343034FF34E634DB342E34FA
:1010E0000834E5343C341E3460344234A2340D34C8
:1010F00001340034003400340A3400340034003445
:101100006434003400340034E834033400340034F0
:101110001034273400340034A034863401340034D1
:10112000403442340F3400348034963498340034E0
:101130000034E134F53405340034CA349A343B3495
:101140004634653472346E3461346E3464346F34D2
:101150004634693467347534653472346F346134BD
:1011600000344434493447344934543441344C34E1
:1011700020343234003425342E3433346634003491
:0A118000543465346D3470340034CB
:10118E0000300A168A1100200A128A1501300A163A
:10119E008A1100200A128A150800003083120313E8
:1011AE00AB000030AA000030A9000030A8002308D0
:1011BE002204210420040319E528E6283329AC0172
:1011CE00AC0AF6280130F5000310A00DA10DA20DFA
:1011DE00A30DF50BEB280130F5007508AC07A31F26
:1011EE00F928FA28E9280130F5000310A80DA90DF9
:1011FE00AA0DAB0DF50BFC2823082702031D1129A0
:10120E0022082602031D112921082502031D11297A
:10121E0020082402031C1429152924292008A402BD
:10122E002108031C210FA5022208031C220FA6026F
:10123E002308031C230FA702281401300310A30C4C
:10124E00A20CA10CA00CFF3E031D25290130AC02FF
:10125E00031D32293329FA282B08A3002A08A200DD
:10126E002908A1002808A0000800831203132F08E4
:10127E008039B4003408B9002F08B4003407B50023
:10128E003508BF00AE1F4C294D294E293F143F088B
:10129E0003195229532962293F0A031D5729582938
:1012AE0060290030AF000030AE000030AD000030DD
:1012BE00AC00AE176A290030AF000030AE0000302F
:1012CE00AD000030AC0033088039B4003408B906E4
:1012DE003308B4003407B5003508BE00B21F7829B4
:1012EE0079297A293E143E0803197E297F298E29F1
:1012FE003E0A031D832984298C290030B300003057
:10130E00B2000030B1000030B000B21796290030A4
:10131E00B3000030B2000030B1000030B0003E0823
:10132E0003199A299B29A0293F08031D9F29A0294B
:10133E00A9290030AF000030AE000030AD00003003
:10134E00AC009C2C2C08B4003408F50032080A16A8
:10135E008A1567210A128A15760883120313C500AF
:10136E007508C4004408B400B501B601B7013708CA
:10137E00BD003608BC003508BB003408BA0045086D
:10138E00B400B501B601B7013708C3003608C20074
:10139E003508C1003408C0002D08B4003408F5002B
:1013AE0031080A168A1567210A128A1576088312E1
:1013BE000313C5007508C4004408B400B501B60196
:1013CE00B7013408BA07350803110318013E031993
:1013DE00F129BB07360803110318013E0319F8293A
:1013EE00BC07370803110318013E0319FF29BD0777
:1013FE004508B400B501B601B7013408C007350879
:10140E0003110318013E03190D2AC10736080311F3
:10141E000318013E0319142AC207370803110318D3
:10142E00013E03191B2AC3072E08B4003408F50029
:10143E0030080A168A1567210A128A157608831251
:10144E000313C5007508C4004408B400B501B60105
:10145E00B7013408BA07350803110318013E031902
:10146E00392ABB07360803110318013E0319402A17
:10147E00BC07370803110318013E0319472ABD079D
:10148E004508B400B501B601B7013408C0073508E8
:10149E0003110318013E0319552AC107360803111B
:1014AE000318013E03195C2AC207370803110318FB
:1014BE00013E0319632AC3070830B4000310BA0DA6
:1014CE00BB0DBC0DBD0DB40B652A2D08B400340840
:1014DE00F50030080A168A1567210A128A15760851
:1014EE0083120313C5007508C4004408B4004508F0
:1014FE00B500B601B7013408BA0735080311031851
:10150E00013E03198B2ABB07360803110318013E4F
:10151E000319922ABC07370803110318013E031959
:10152E00992ABD072C08B4003408F50031080A16B4
:10153E008A1567210A128A15760883120313C500CD
:10154E007508C4004408B4004508B500B601B701DB
:10155E003408BA07350803110318013E0319B82AD7
:10156E00BB07360803110318013E0319BF2ABC0737
:10157E00370803110318013E0319C62ABD070830A8
:10158E00B4000310BA0DBB0DBC0DBD0DB40BC82AB3
:10159E002C08B4003408F50030080A168A156721A5
:1015AE000A128A15760883120313C5007508C40043
:1015BE004408B4004508B500B601B7013408BA07AF
:1015CE00350803110318013E0319EE2ABB0736082E
:1015DE0003110318013E0319F52ABC07370803113E
:1015EE000318013E0319FC2ABD072D08B400340868
:1015FE00F50032080A168A1567210A128A1576082E
:10160E0083120313C5007508C4004408B4004508CE
:10161E00B500B601B7013408C00735080311031829
:10162E00013E03191B2BC107360803110318013E97
:10163E000319222BC207370803110318013E0319A1
:10164E00292BC3072E08B4003408F50031080A16FA
:10165E008A1567210A128A15760883120313C500AC
:10166E007508C4004408B4004508B500B601B701BA
:10167E003408C007350803110318013E0319482B1F
:10168E00C107360803110318013E03194F2BC20779
:10169E00370803110318013E0319562BC3072E08F2
:1016AE00B4003408F50032080A168A1567210A12AA
:1016BE008A15760883120313C5007508C400440802
:1016CE00B4004508B500B601B70108300310B40DDB
:1016DE00B50DB60DB70DFF3E031D6D2B3408C007BB
:1016EE00350803110318013E03197E2BC107360876
:1016FE0003110318013E0319852BC2073708031186
:10170E000318013E03198C2BC3073A08B4003B089B
:10171E00B5003C08B6003D08B70018300310B70CF2
:10172E00B60CB50CB40CFF3E031D952B3408C00748
:10173E00350803110318013E0319A62BC1073608FD
:10174E0003110318013E0319AD2BC207370803110D
:10175E000318013E0319B42BC3070830B40003105D
:10176E00BA0DBB0DBC0DBD0DB40BB62B3F083E071D
:10177E00B400B501B50D3408823EC4003508031817
:10178E00013EFF3EC500E82B0130B4000310C00D32
:10179E00C10DC20DC30DB40BCD2BBD1FD72BD82B36
:1017AE00D92B40140130B4000310BA0DBB0DBC0D83
:1017BE00BD0DB40BDB2BFF30C4070318C50AFF3079
:1017CE00C507C21FEB2BEC2BCB2BBE01BD1FF02B85
:1017DE00F12B0D2CFF303A05B400FF303B05B50060
:1017EE00FF303C05B6007F303D05B70037083604A4
:1017FE00350434040319042C052C082CBE01BE0A32
:10180E000D2C401C0B2C0C2C0D2C052C3E080319FA
:10181E00112C122C432C0130C0070030031801305C
:10182E00C107003003180130C20700300318013021
:10183E00C307431C232C242C432C4008B40041081E
:10184E00B5004208B6004308B7000130B800370DA6
:10185E00B70CB60CB50CB40CB80B2E2C3708C30055
:10186E003608C2003508C1003408C0000130C40774
:10187E000318C50A0030C5074508803AFF008030BE
:10188E007F02031D4C2CFF304402031C4F2C502CA6
:10189E005B2C7F3083120313C3008030C2000030F4
:1018AE00C1000030C000902C831203134508803A0B
:1018BE00FF0080307F02031D662C013044020318A6
:1018CE00692C6A2C762C003083120313C30000306F
:1018DE00C2000030C1000030C000B901902C83124C
:1018EE0003134408B4003408BF00FF30C005FF30B6
:1018FE00C1057F30C2050030C3053F1C872C882CE4
:10190E00892CC2173F08B4000310340CB5003508FB
:10191E00C3003908B4003408C3044308AF004208BA
:10192E00AE004108AD004008AC000800831203135E
:10193E00D800D81FA32CA42C532ED809D80A580887
:10194E00803A123E031CAC2CAD2C972D0A30A3000E
:10195E000030A4005808F700F801F71BF8036430B4
:10196E00F5000030F6000A168A1538240A128A1578
:10197E00760883120313A6007508A5000A128A11B1
:10198E0086270A128A15831203132308CA00013010
:10199E000310CA0DFF3E031DCF2C03104A0D593EF6
:1019AE0084000A128A150A200A128A15CB000A121E
:1019BE008A150A200A128A15CC000A128A150A20E4
:1019CE000A128A15CD000A128A150A200A128A15E1
:1019DE00CE004E08AF004D08AE004C08AD004B08CF
:1019EE00AC006430A3000030A4005808A500A60186
:1019FE00A51BA6030A128A1186270A128A158312BC
:101A0E0003132308CF0001300310CF0DFF3E031D3B
:101A1E000B2D03104F0D7D3E84000A128A150A20ED
:101A2E000A128A15D0000A128A150A200A128A157D
:101A3E00D1000A128A150A200A128A15D2000A1239
:101A4E008A150A200A128A15D3005308B3005208C9
:101A5E00B2005108B1005008B0000A128A153C219C
:101A6E000A128A15831203132F08D7002E08D600E8
:101A7E002D08D5002C08D4000A30F5000030F600F1
:101A8E005808F700F801F71BF8030A168A153824D0
:101A9E000A128A15750883120313CA000130031047
:101AAE00CA0DFF3E031D562D03104A0D353E840010
:101ABE000A128A150A200A128A15CB000A128A15F2
:101ACE000A200A128A15CC000A128A150A200A1256
:101ADE008A15CD000A128A150A200A128A15CE001E
:101AEE004E08AF004D08AE004C08AD004B08AC00E0
:101AFE005708B3005608B2005508B1005408B0009C
:101B0E000A128A153C210A128A15831203132F0812
:101B1E00C9002E08C8002D08C7002C08C600FF2FCC
:101B2E005808803A753E031C9D2D9E2D262E0A3098
:101B3E00F5000030F6005808F700F801F71BF8031F
:101B4E000A168A1538240A128A1575088312031389
:101B5E00CA0001300310CA0DFF3E031DB12D031044
:101B6E004A0D353E84000A128A150A200A128A1579
:101B7E00CB000A128A150A200A128A15CC000A1204
:101B8E008A150A200A128A15CD000A128A150A2011
:101B9E000A128A15CE004E08AF004D08AE004C0852
:101BAE00AD004B08AC000A30A3000030A40058086A
:101BBE00A500A601A51BA6030A128A1186270A12E2
:101BCE008A15831203132308CF0001300310CF0DA3
:101BDE00FF3E031DED2D03104F0D593E84000A12DA
:101BEE008A150A200A128A15D0000A128A150A20AE
:101BFE000A128A15D1000A128A150A200A128A15AB
:101C0E00D2000A128A150A200A128A15D300530826
:101C1E00B3005208B2005108B1005008B0000A12C9
:101C2E008A153C210A128A15831203132F08C90044
:101C3E002E08C8002D08C7002C08C600FF2F580814
:101C4E00CA0001300310CA0DFF3E031D292E0310DA
:101C5E004A0D353E84000A128A150A200A128A1588
:101C6E00CB000A128A150A200A128A15CC000A1213
:101C7E008A150A200A128A15CD000A128A150A2020
:101C8E000A128A15CE004E08C9004D08C8004C082D
:101C9E00C7004B08C600FF2F5808803A123E031C9F
:101CAE00592E5A2E442F0A30A3000030A400580893
:101CBE00F700F801F71BF8036430F5000030F6006A
:101CCE000A168A1538240A128A1576088312031307
:101CDE00A6007508A5000A128A1186270A128A150F
:101CEE00831203132308CA0001300310CA0DFF3EEE
:101CFE00031D7C2E03104A0D253E84000A128A1500
:101D0E000A200A128A15CB000A128A150A200A1214
:101D1E008A15CC000A128A150A200A128A15CD00DD
:101D2E000A128A150A200A128A15CE004E08AF0032
:101D3E004D08AE004C08AD004B08AC006430A3005B
:101D4E000030A4005808A500A601A51BA6030A1280
:101D5E008A1186270A128A15831203132308CF00CD
:101D6E0001300310CF0DFF3E031DB82E03104F0D93
:101D7E00493E84000A128A150A200A128A15D000DA
:101D8E000A128A150A200A128A15D1000A128A1519
:101D9E000A200A128A15D2000A128A150A200A127D
:101DAE008A15D3005308B3005208B2005108B1008F
:101DBE005008B0000A128A153C210A128A158312A5
:101DCE0003132F08D7002E08D6002D08D5002C0897
:101DDE00D4000A30F5000030F6005808F700F8017C
:101DEE00F71BF8030A168A1538240A128A15750885
:101DFE0083120313CA0001300310CA0DFF3E031DE8
:101E0E00032F03104A0D013E84000A128A150A2080
:101E1E000A128A15CB000A128A150A200A128A158E
:101E2E00CC000A128A150A200A128A15CD000A124F
:101E3E008A150A200A128A15CE004E08AF004D08E8
:101E4E00AE004C08AD004B08AC005708B300560866
:101E5E00B2005508B1005408B0000A128A153C2190
:101E6E000A128A15831203132F08C9002E08C80000
:101E7E002D08C7002C08C600FF2F5808803A753E63
:101E8E00031C4A2F4B2FD32F0A30F5000030F600DB
:101E9E005808F700F801F71BF8030A168A153824BC
:101EAE000A128A15750883120313CA000130031033
:101EBE00CA0DFF3E031D5E2F03104A0D013E840026
:101ECE000A128A150A200A128A15CB000A128A15DE
:101EDE000A200A128A15CC000A128A150A200A1242
:101EEE008A15CD000A128A150A200A128A15CE000A
:101EFE004E08AF004D08AE004C08AD004B08AC00CC
:101F0E000A30A3000030A4005808A500A601A51BA6
:101F1E00A6030A128A1186270A128A158312031340
:101F2E002308CF0001300310CF0DFF3E031D9A2F63
:101F3E0003104F0D253E84000A128A150A200A123C
:101F4E008A15D0000A128A150A200A128A15D100A3
:101F5E000A128A150A200A128A15D2000A128A1546
:101F6E000A200A128A15D3005308B3005208B20091
:101F7E005108B1005008B0000A128A153C210A120D
:101F8E008A15831203132F08C9002E08C8002D08C6
:101F9E00C7002C08C600FF2F5808CA0001300310D6
:101FAE00CA0DFF3E031DD62F03104A0D013E8400BD
:101FBE000A128A150A200A128A15CB000A128A15ED
:101FCE000A200A128A15CC000A128A150A200A1251
:101FDE008A15CD000A128A150A200A128A15CE0019
:101FEE004E08C9004D08C8004C08C7004B08C60073
:101FFE000800F7008312031308117708860088156E
:10200E000C30F600AF30F500F50B0B28F60B0B2855
:10201E008312031388110800831203132008F5009E
:10202E002108F6002208F7000310760D770DF80050
:10203E007808AD002D08031D252826282F280030EE
:10204E00A3000030A2000030A1000030A000CF2875
:10205E002408F5002508F6002608F7000310760D73
:10206E00770DF8007808AC002C08031D3F28402897
:10207E0041282628A117FF30A005FF30A10500300A
:10208E00A205A517FF30A405FF30A5050030A60553
:10209E000030AB000030AA000030A9000030A800CC
:1020AE007F30AD0298302C07F5007508AD02183060
:1020BE00F5007508AC000130F5000310A80DA90D50
:1020CE00AA0DAB0DF50B642826082202031D7528F8
:1020DE0025082102031D752824082002031C7828D8
:1020EE00792884282408A0022508031C250FA102A4
:1020FE002608031C260AA202281401300310A00D84
:10210E00A10DA20DFF3E031D85280130AC02031D5B
:10211E00912892286228AD1F95289628B0282D0860
:10212E00803A973E03189C289D289E282628013029
:10213E000310AB0CAA0CA90CA80CFF3E031D9F2884
:10214E000130F5007508AD07031DAE28AF289E2897
:10215E00C72818302D02031CB528B628C2282628F9
:10216E000130F5000310A80DA90DAA0DAB0DF50B4E
:10217E00B9280130AD022D08031DC628C728B7287F
:10218E002B08A3002A08A2002908A1002808A000F5
:10219E000800031083120313220D230DF50075089A
:1021AE00AD002D08031DDC28DD28E6280030A30035
:1021BE000030A2000030A1000030A0008D290310D5
:1021CE00260D270DF5007508AC002C08031DF02810
:1021DE00F128F228DD28A217FF30A005FF30A10557
:1021EE00FF30A2050030A305A617FF30A405FF306F
:1021FE00A505FF30A6050030A7050030AB00003066
:10220E00AA000030A9000030A8007F30AD02A03037
:10221E002C07F5007508AD022030F5007508AC00EE
:10222E000130F5000310A80DA90DAA0DAB0DF50B8D
:10223E00192927082302031D2E2926082202031D11
:10224E002E2925082102031D2E2924082002031CF5
:10225E003129322941292408A0022508031C250F03
:10226E00A1022608031C260FA2022708031C270F13
:10227E00A30228140130F5000310A00DA10DA20D2C
:10228E00A30DF50B43290130AC02031D4F29502934
:10229E001729AD1F532954296E292D08803A9F3EC8
:1022AE0003185A295B295C29DD2801300310AB0C79
:1022BE00AA0CA90CA80CFF3E031D5D290130F500E8
:1022CE007508AD07031D6C296D295C298529203001
:1022DE002D02031C732974298029DD280130F50095
:1022EE000310A80DA90DAA0DAB0DF50B7729013022
:1022FE00AD022D08031D8429852975292B08A300FD
:10230E002A08A2002908A1002808A00008008312AC
:10231E0003134D088039CE004E08D7004D08CE006D
:10232E004E07CF004F08DE00CC1F9E299F29A02903
:10233E005E145E080319A429A529B5295E0A031D9A
:10234E00A929AA29B2290030CD000030CC000030D6
:10235E00CB000030CA00CC17CD01BD290030CD0016
:10236E000030CC000030CB000030CA004908803964
:10237E00CE004E08D7064908CE004E07CF004F08B4
:10238E00DF00C81FCB29CC29CD295F145F080319A4
:10239E00D129D229E2295F0A031DD629D729DF299F
:1023AE000030C9000030C8000030C7000030C60041
:1023BE00C817C901EA290030C9000030C800003032
:1023CE00C7000030C6004908480447044604031DF0
:1023DE00F129F2290B2A0030CD000030CC0000305C
:1023EE00CB000030CA008030CC047F30CD045708BB
:1023FE00CE004E08CD044D08C9004C08C8004B084D
:10240E00C7004A08C6006A2B5E08031D0F2A102A51
:10241E00192A0030C9000030C8000030C700003053
:10242E00C6006A2B5E08CE00CF014F08D1005F08B0
:10243E004E02D000031CD10350087F3ED800510835
:10244E000318013E003ED9004D08D6004C08D500B9
:10245E004B08D4004A08D3000030CD000030CC0029
:10246E000030CB000030CA000030DD000030DC0050
:10247E000030DB000030DA00DF018F2A5F0803191D
:10248E00492A4A2A6A2A0130CE000310D30DD40DF0
:10249E00D50DD60DCE0B4C2A0130CE000310CA0D31
:1024AE00CB0DCC0DCD0DCE0B552ADD1F5F2A602A2C
:1024BE00612A4A140130CE000310DA0DDB0DDC0D5B
:1024CE00DD0DCE0B632A49085602031D782A4808F3
:1024DE005502031D782A47085402031D782A460820
:1024EE005302031C7B2A7C2A8B2A5D174608D302D3
:1024FE004708031C470FD4024808031C480FD50297
:10250E004908031C490FD6020130CE004E08DF07E2
:10251E001A305F02031C942A952A452A5608550440
:10252E005404530403199C2A9D2ABC2A5A14BC2A0B
:10253E000130CE000310CA0DCB0DCC0DCD0DCE0B40
:10254E00A12ADD1FAB2AAC2AAD2A4A140130CE00D7
:10255E000310DA0DDB0DDC0DDD0DCE0BAF2AFF30D7
:10256E00D8070318D90AFF30D907CC1FBF2AC02AB3
:10257E009F2ADF01DD1FC42AC52AE12AFF305A0532
:10258E00CE00FF305B05CF00FF305C05D0007F3002
:10259E005D05D100510850044F044E040319D82A8A
:1025AE00D92ADC2ADF01DF0AE12A4A1CDF2AE02AC7
:1025BE00E12AD92A5F080319E52AE62A172B0130EA
:1025CE00CA07003003180130CB0700300318013062
:1025DE00CC07003003180130CD074D1CF72AF82A1E
:1025EE00172B4A08CE004B08CF004C08D0004D08E0
:1025FE00D1000130D200510DD10CD00CCF0CCE0C2D
:10260E00D20B022B5108CD005008CC004F08CB0046
:10261E004E08CA000130D8070318D90A0030D9076E
:10262E005908803AFF0080307F02031D202BFF30B7
:10263E005802031C232B242B322BFF30831203133F
:10264E00D8000030D9000030CD000030CC00003072
:10265E00CB000030CA00831203135908803AFF00E2
:10266E0080307F02031D3D2B013058020318402B92
:10267E00412B4E2B83120313D801D9010030CD000C
:10268E000030CC000030CB000030CA00D7018312DE
:10269E0003135808CE004E08DE005E1C572B582B35
:1026AE005A2BCC175E2B7F30CE004E08CC055E0821
:1026BE00CE0003104E0CCF004F08CD005708CE00B1
:1026CE004E08CD04022A080083120313D9006E307F
:1026DE005902031C732B742B832C3F30AF00003038
:1026EE00AE000030AD000030AC006430A20000300F
:1026FE00A3005908CA00CB014A08A4004B08A50044
:10270E000A168A15A2220A168A11831203132208A8
:10271E00CC0001300310CC0DFF3E031D912B031096
:10272E004C0D7D3E84000A128A150A200A168A1163
:10273E00CD000A128A150A200A168A11CE000A1234
:10274E008A150A200A168A11CF000A128A150A2043
:10275E000A168A11D0005008B3004F08B2004E0876
:10276E00B1004D08B0000A128A153C210A168A11D2
:10277E00831203132F08D8002E08D7002D08D60079
:10278E002C08D5000A30A2000030A3005908CA0058
:10279E00CB014A08F7004B08F8006430F500003012
:1027AE00F6000A168A1520220A168A117608831256
:1027BE000313A5007508A4000A168A15A2220A168C
:1027CE008A11831203132208CC0001300310CC0DA2
:1027DE00FF3E031DED2B03104C0D593E84000A12D3
:1027EE008A150A200A168A11CD000A128A150A20A5
:1027FE000A168A11CE000A128A150A200A168A11A2
:10280E00CF000A128A150A200A168A11D000500823
:10281E00AF004F08AE004E08AD004D08AC00580892
:10282E00B3005708B2005608B1005508B0000A129E
:10283E008A153C210A168A11831203132F08D4001D
:10284E002E08D3002D08D2002C08D1000A30F50036
:10285E000030F6005908CA00CB014A08F7004B08B1
:10286E00F8000A168A1520220A168A117508831294
:10287E000313CC0001300310CC0DFF3E031D422C80
:10288E0003104C0D353E84000A128A150A200A16D2
:10289E008A11CD000A128A150A200A168A11CE0054
:1028AE000A128A150A200A168A11CF000A128A15F0
:1028BE000A200A168A11D0005008AF004F08AE0049
:1028CE004E08AD004D08AC005408B3005308B200DA
:1028DE005208B1005108B0000A128A153C210A169E
:1028EE008A11831203132F08C9002E08C8002D0861
:1028FE00C7002C08C600772D0B305902031C882CFC
:10290E00892C342D3F30AF000030AE000030AD00CA
:10291E000030AC000A30A2000030A3005908CA00F3
:10292E00CB014A08A4004B08A5000A168A15A2225C
:10293E000A168A11831203132208CC0001300310E9
:10294E00CC0DFF3E031DA62C03104C0D593E8400EA
:10295E000A128A150A200A168A11CD000A128A1541
:10296E000A200A168A11CE000A128A150A200A16A1
:10297E008A11CF000A128A150A200A168A11D0006F
:10298E005008B3004F08B2004E08B1004D08B00019
:10299E000A128A153C210A168A11831203132F0874
:1029AE00D8002E08D7002D08D6002C08D5000A30E6
:1029BE00F5000030F6005908CA00CB014A08F700AE
:1029CE004B08F8000A168A1520220A168A11750875
:1029DE0083120313CC0001300310CC0DFF3E031DF8
:1029EE00F32C03104C0D353E84000A128A150A2072
:1029FE000A168A11CD000A128A150A200A168A11A1
:102A0E00CE000A128A150A200A168A11CF000A125F
:102A1E008A150A200A168A11D0005008AF004F08F6
:102A2E00AE004E08AD004D08AC005808B300570874
:102A3E00B2005608B1005508B0000A128A153C21A2
:102A4E000A168A11831203132F08C9002E08C80014
:102A5E002D08C7002C08C600772D3F30AF00003080
:102A6E00AE000030AD000030AC005908CA00013095
:102A7E000310CA0DFF3E031D3F2D03104A0D353EB8
:102A8E0084000A128A150A200A168A11CB000A122D
:102A9E008A150A200A168A11CC000A128A150A20F3
:102AAE000A168A11CD000A128A150A200A168A11F0
:102ABE00CE004E08B3004D08B2004C08B1004B08D2
:102ACE00B0000A128A153C210A168A1183120313CA
:102ADE002F08C9002E08C8002D08C7002C08C600F4
:102AEE000800831203135D088039E2006208EA00D1
:102AFE005D08E2006207E3006308EC00DC1F882D2E
:102B0E00892D8A2D6C146C0803198E2D8F2D9F2DF7
:102B1E006C0A031D932D942D9C2D0030DD0000308A
:102B2E00DC000030DB000030DA00DC17DD01A72D01
:102B3E000030DD000030DC000030DB000030DA0059
:102B4E0061088039E2006208EB006B086A0603191F
:102B5E00B12DB22DB32D6A176108E2006207E300B2
:102B6E006308EB00E01FBC2DBD2DBE2D6B146B0852
:102B7E000319C22DC32DD32D6B0A031DC72DC82DCE
:102B8E00D02D0030E1000030E0000030DF000030DA
:102B9E00DE00E017E101DB2D0030E1000030E00047
:102BAE000030DF000030DE006C086B020318E02DF1
:102BBE00E12D252E6A1FE42DE52DE92D8030E20052
:102BCE006208EA066C08E2006208ED006B08E2009B
:102BDE006208EC006D08E2006208EB005A08E200A1
:102BEE006208ED005E08E2006208DA006D08E2009D
:102BFE006208DE005B08E2006208ED005F08E2009A
:102C0E006208DB006D08E2006208DF005C08E2008B
:102C1E006208ED006008E2006208DC006D08E20068
:102C2E006208E0005D08E2006208ED006108E20063
:102C3E006208DD006D08E2006208E100ED016B083C
:102C4E00E200E3016308E5006C086202E400031C85
:102C5E00E5036508803AFF0080307F02031D392EA0
:102C6E001A306402031C3C2E3D2E7A2E831203135F
:102C7E005D085C045B045A04031D462E482E013089
:102C8E00492E0030E2006208ED000030DD00003019
:102C9E00DC000030DB000030DA006B08E200620876
:102CAE00EC00822E6D1C5C2E5D2E662E6D08E200F1
:102CBE000310620C0138E3006308ED00682E031068
:102CCE00ED0C5A1C6B2E6C2E6D2EED170130E200A2
:102CDE005D0DDD0CDC0CDB0CDA0CE20B6F2E013023
:102CEE00E2006208EC07831203136B086C02031CEC
:102CFE00812E822E592E6A1B852E862ED12E6C0881
:102D0E00031D8A2E8B2E942E0030DD000030DC0049
:102D1E000030DB000030DA00FF2F5E08DA075F08B4
:102D2E0003110318013E03199D2EDB0760080311E2
:102D3E000318013E0319A42EDC07610803110318C2
:102D4E00013E0319AB2EDD075D1CAE2EAF2E852F77
:102D5E006D1CB22EB32EBC2E6D08E2000310620C59
:102D6E000138E3006308ED00BE2E0310ED0C5A1C73
:102D7E00C12EC22EC32EED170130E2005D0DDD0C0B
:102D8E00DC0CDB0CDA0CE20BC52E0130E200620823
:102D9E00EC07852F5D08803AFF006108803A7F02BC
:102DAE00031DE32E60085C02031DE32E5F085B0229
:102DBE00031DE32E5E085A020318E62EE72E3F2F60
:102DCE00FF30E200FF30E300FF30E400FF30E500AB
:102DDE005E08E6005F08E7006008E8006108E900A9
:102DEE005A08E6025B08031C5B0FFE2EFF2EE7025D
:102DFE005C08031C5C0F042F052FE8025D08031C02
:102E0E005D0F0A2F0B2FE9026608E2076708031809
:102E1E00670F122F132FE30768080318680F182F78
:102E2E00192FE40769080318690AE5076508DD002C
:102E3E006408DC006308DB006208DA008030E20020
:102E4E006208EA06ED09ED0A6D08031D2F2F302FDB
:102E5E004D2F0130DA07003003180130DB07003048
:102E6E0003180130DC07003003180130DD074D2F49
:102E7E005E08DA025F08031C5F0FDB026008031CAA
:102E8E00600FDC026108031C610FDD025D085C044B
:102E9E005B045A04031D542F552F812F6D08031DFB
:102EAE00592F5A2F812F0030DD000030DC0000300A
:102EBE00DB000030DA00FF2F0130E2000310DA0DE4
:102ECE00DB0DDC0DDD0DE20B652FED1F6F2F702F6F
:102EDE00712F5A146D1C742F752F782F0314ED0D4E
:102EEE007A2F0310ED0D6C0803197E2F7F2F812F83
:102EFE000130EC02DC1F842F852F632FEB01ED1FB9
:102F0E00892F8A2F982F6D087F3903198F2F902FB5
:102F1E00932FEB01EB0A982F5A1C962F972F982F71
:102F2E00902F6B0803199C2F9D2FD12F0130DA079C
:102F3E00003003180130DB07003003180130DC07C6
:102F4E00003003180130DD075D1CAE2FAF2FD12FDF
:102F5E005A08E2005B08E3005C08E4005D08E50047
:102F6E000130E600650DE50CE40CE30CE20CE60B1B
:102F7E00B92F6508DD006408DC006308DB00620819
:102F8E00DA006C0A0319CC2FCD2FD12F0130E200BD
:102F9E006208EC076C0A0319D52FD62FDB2F6C08AD
:102FAE00031DDA2FDB2FE92F0030DD000030DC00AF
:102FBE000030DB000030DA006C08031DE72FE82F2D
:102FCE00E92FEA016C1CEC2FED2FEF2FDC17F32FFE
:102FDE007F30E2006208DC056C08E2000310620C30
:102FEE00E3006308DD00EA1FFD2FFE2FFF2FDD1724
:022FFE000800C9
:1031C200F000700883120313930008007808770454
:1031D200760475040319EE28EF28F1288030F806EA
:1031E2000800F600F5013A3076020318F928FA28A9
:1031F200022930307602031CFF2800290229F5013A
:10320200F50A750C0800F800831603138712781D5F
:103212000B290C29102977089400871514297508A1
:1032220077049400871178087604831203139400BC
:10323200080083120313A1002103031D212922295F
:103242002E2978087F3EA0002008A20022080A1634
:103252008A1100200A168A153F2902302106031D11
:10326200332934293F297808BF3EA0002008A20054
:1032720022080A168A1100200A168A1508008312EB
:1032820003130C1F4529462950290C131E08F1006F
:10329200F201710883160313D7007208D800831253
:1032A2008C1D5429552960298316031357080A16C1
:1032B2008A15E1200A168A15831203138C117408E9
:1032C2008A00730E8300FE0E7E0E09008312031322
:1032D200A400A001A1017508F700F8017708A20077
:1032E2007808A300241C762977297D292208A007C3
:1032F2000318A10A2308A10701300310A20DA30D90
:10330200FF3E031D7E290310A40C2408031D8A29F5
:103312008B2973292108F6002008F5000800831282
:103322000313A001A101751C97299829A0297708E8
:1033320083120313A0070318A10A7808A10701301A
:103342000310F70DF80DFF3E031DA12901300310F4
:10335200F60CF50CFF3E031DA82975087604031D23
:10336200B329B4299429831203132108F6002008F3
:10337200F5000800831603178801890101308316BE
:1033820003138500860188018901831203138901D1
:103392008316031708148814831203131F14831649
:1033A20003139F138B170B170C17831203130C13A2
:1033B2008C11831603138C158516F501F601F7019E
:1033C20024300A168A1504210A168A150800831267
:1033D2000313081100300A168A1100200A168A15F2
:1033E2002C3083120313A100D330A000A00BF729C5
:1033F200A10BF72930300A168A1100200A168A1505
:10340200773083120313A000A00B052A38300A1666
:103412008A1100200A168A1501300A168A11002024
:103422000A168A1506300A168A1100200A168A150B
:103432000F300A168A1100200A168A15080075082C
:1034420076040319252A262A572A83120313A10177
:10345200A10A362A01300310F50DF60DFF3E031DB9
:103462002C2A0130A0002008A107F61F392A3A2A87
:103472002B2A76087802031D402A75087702031C5E
:10348200432A442A4A2A7508F7027608031CF803DD
:10349200F80201300310F60CF50CFF3E031D4B2A17
:1034A2000130A102031D562A572A3A2A7808F6004B
:1034B2007708F500080083120313A301A401852AEB
:1034C20023087707A1007808A0000318A00AA31F09
:1034D2006B2AA003831203132008A2002208FF0014
:1034E200210884000A128A1500200A168A150A1277
:1034F2008A11EF270A168A15013083120313A307D4
:103502000318A40A0030A40723087707A10078084B
:10351200A0000318A00AA31F8F2AA003831203137B
:103522002008A2002208FF00210884000A128A153E
:1035320000200A168A15003A031DA02AA12A612A30
:10354200080083120313A701A80122082304031908
:10355200AB2AAC2AE32AA901A90ABA2A013003102C
:10356200A20DA30DFF3E031DB02A0130A6002608BE
:10357200A907A31FBD2ABE2AAF2A01300310A70D37
:10358200A80DFF3E031DBF2A23082502031DCB2AD7
:1035920022082402031CCE2ACF2AD62A2208A402F9
:1035A2002308031CA503A502271401300310A30C52
:1035B200A20CFF3E031DD72A0130A902031DE22AF5
:1035C200E32ABE2A2808A3002708A2000800003028
:1035D200831203132005F50000302105F600803028
:1035E2002205F7007F302305F80078087704760477
:1035F2007504031DFD2AFE2A062B0030A3000030AD
:10360200A2000030A1000030A00000302405F50027
:1036120000302505F60080302605F7007F302705AB
:10362200F8007808770476047504031D192B1A2B09
:10363200222B0030A7000030A6000030A500003089
:10364200A40027082306031D302B26082206031D8B
:10365200302B25082106031D302B240820060319D0
:10366200332B342B362B0310372B031408008030F6
:1036720083160313A306270883120313DD008316A0
:103682000313260883120313DC0083160313250891
:1036920083120313DB00831603132408831203131C
:1036A200DA0083160313230883120313E10083163F
:1036B2000313220883120313E00083160313210865
:1036C20083120313DF0083160313200883120313EC
:1036D200DE000A168A1178250A168A158312031348
:1036E2005D0883160313A300831203135C08831679
:1036F2000313A200831203135B0883160313A100B2
:10370200831203135A0883160313A00008008312BE
:10371200031323082204210420040319912B922B62
:10372200D52BF601F60AA22B0130F5000310A00DED
:10373200A10DA20DA30DF50B972B0130F500750815
:10374200F607A31FA52BA62B952B23082702031DE3
:10375200B42B22082602031DB42B21082502031DC7
:10376200B42B20082402031CB72BB82BC62B20082D
:10377200A4022108031C210FA5022208031C220F08
:10378200A6022308031C230FA70201300310A30C77
:10379200A20CA10CA00CFF3E031DC72B0130F602A8
:1037A200031DD42BD52BA62B2708A3002608A20085
:1037B2002508A1002408A00008000A168A15BB21CA
:1037C2000A168A150A168A15E8210A168A15F801B8
:1037D200F80A01300A168A151A210A168A15A23029
:1037E200F7008030F8000A168A155C220A168A153C
:1037F200F801F80A02300A168A151A210A168A15E1
:103802009130F7008030F8000A168A155C220A16F9
:103812008A15023083160313D2002530D1003130CD
:10382200D000D00B122CD10B122CD20B122C0A125C
:103832008A15C7200A168A15F801F80A01300A16F5
:103842008A151A210A168A15B130F7008030F8005D
:103852000A168A155C220A168A1500300A168A157B
:103862006F260A168A152E2C0A128A110C28831228
:103872000313A201F81F3E2C3F2C462CF709F8092E
:10388200F70A0319F80AA201A20AF61F492C4A2CC8
:103892004F2CF509F609F50A0319F60A750876049C
:1038A2000319542C552C842CA101A10A632C01303C
:1038B2000310F50DF60DFF3E031D592C0130A0003B
:1038C2002008A107F61F662C672C582C7608780270
:1038D200031D6D2C75087702031C702C712C772C3C
:1038E2007508F7027608031CF803F802013003108A
:1038F200F60CF50CFF3E031D782C0130A102031DCE
:10390200832C842C672C22080319882C892C8E2C5A
:10391200F709F809F70A0319F80A7808F600770890
:10392200F50008000310831203135B0D5C0DDD002C
:103932005D08E3006308031D9F2CA02CA92C003016
:10394200DC000030DB000030DA000030D9000E2D40
:103952005908DD005A08DE005B08DF005C08E00061
:103962001F300310E00CDF0CDE0CDD0CFF3E031DEC
:10397200B22C5D08E1006108E200DB17FF30D905D7
:10398200FF30DA05FF30DB050030DC059630E3025C
:10399200E31FCC2CCD2CE72C6308803A973E03180A
:1039A200D32CD42CD52CA02C01300310DC0CDB0C36
:1039B200DA0CD90CFF3E031DD62C0130DD005D0868
:1039C200E307031DE52CE62CD52CFE2C20306302E8
:1039D200031CEC2CED2CF92CA02C0130DD00031083
:1039E200D90DDA0DDB0DDC0DDD0BF02C0130E3021D
:1039F2006308031DFD2CFE2CEE2C62080319022D18
:103A0200032D0E2DD909DA09DB09DC09D90A0319BC
:103A1200DA0A0319DB0A0319DC0A080000308312F0
:103A220003132005F50000302105F6008030220541
:103A3200F7007F302305F8007808770476047504D0
:103A4200031D242D252D2D2D0030A3000030A200B2
:103A52000030A1000030A00000302405F500003045
:103A62002505F60080302605F7007F302705F8008F
:103A72007808770476047504031D402D412D492DE5
:103A82000030A7000030A6000030A5000030A400DE
:103A9200A31F4C2D4D2D712D0030F5000030F60086
:103AA2000030F7008030F8002008F5022108031CDE
:103AB200210F5C2D5D2DF6022208031C220F622DC0
:103AC200632DF7022308031C230F682D692DF802CA
:103AD2007808A3007708A2007608A1007508A00064
:103AE200A71F742D752D992D0030F5000030F600BA
:103AF2000030F7008030F8002408F5022508031C86
:103B0200250F842D852DF6022608031C260F8A2DEB
:103B12008B2DF7022708031C270F902D912DF802F9
:103B22007808A7007708A6007608A5007508A40003
:103B32008030A3068030A70627082302031DAB2D81
:103B420026082202031DAB2D25082102031DAB2DE1
:103B5200240820020318AE2DAF2DB12D0310B22D73
:103B62000314080083120313A40024080319BA2DB6
:103B7200BB2DCF2DF81FBE2DBF2DCF2D7509A60051
:103B82007609A7007709A8007809A900A60A0319EF
:103B9200A70A0319A80A0319A90AD72D7808A900A8
:103BA2007708A8007608A7007508A60078087704A9
:103BB20076047504031DDE2DDF2DE82D0030F8009C
:103BC2000030F7000030F6000030F5006E2E96301F
:103BD200A0002008A500FA2D0130A0002008A507AA
:103BE20001300310A90CA80CA70CA60CFF3E031D64
:103BF200F22DFE302905031DFF2D002EED2D1C2E6A
:103C02000130A0002008A5070130A60700300318E4
:103C12000130A707003003180130A807003003184D
:103C22000130A90701300310A90CA80CA70CA60C9F
:103C3200FF3E031D142EFF302905031D212E222EC7
:103C4200012E2E2E0130A5020130A0000310A60D78
:103C5200A70DA80DA90DA00B272EA81B312E322EC1
:103C6200382E023025020318372E382E232E25181F
:103C72003B2E3C2E442EFF30A605FF30A7057F3099
:103C8200A805FF30A9050310A50C2508A000A10175
:103C9200A201A30118300310A00DA10DA20DA30DC6
:103CA200FF3E031D4C2E2008A6042108A70422086B
:103CB200A8042308A90424080319602E612E662E85
:103CC200F81F642E652E662EA9172908F800280809
:103CD200F7002708F6002608F500080083160313EC
:103CE200CF004F0883120313EE00EE0DEE0D1F08F6
:103CF2006E06C3396E069F009F18802E812EFF2FFD
:103D0200831603134F08031D872E882EFF2F43307F
:103D120083120313C9007F30C8000030C70000308F
:103D2200C6004030AF00A030AE000030AD00003021
:103D3200AC00831603135708F5005808F60000304C
:103D4200F61BFF30F700F80001300A168A15B3257A
:103D52000A168A15780883120313B3007708B20093
:103D62007608B1007508B0000A128A153C210A16BD
:103D72008A15831203132F08CD002E08CC002D08BC
:103D8200CB002C08CA000A168A118E210A168A153F
:103D920083120313490883160313CE0083120313FD
:103DA200480883160313CD008312031347088316B2
:103DB2000313CC0083120313460883160313CB00AC
:103DC200423083120313AF00C830AE000030AD00A2
:103DD2000030AC00831603134E0883120313B300A2
:103DE200831603134D0883120313B20083160313C1
:103DF2004C0883120313B100831603134B0883127A
:103E02000313B0000A128A153C210A168A1583127E
:103E120003132F0883160313D600831203132E08ED
:103E220083160313D500831203132D08831603137D
:103E3200D400831203132C0883160313D3005608ED
:103E420083120313A300831603135508831203136B
:103E5200A20083160313540883120313A1008316CE
:103E62000313530883120313A0004130A700C0308C
:103E7200A6000030A5000030A4000A168A150F25FE
:103E82000A168A150318462F472F4C2F8312031345
:103E9200091489100911413083120313A300C83099
:103EA200A2000030A1000030A000831603135608C0
:103EB20083120313A70083160313550883120313F7
:103EC200A60083160313540883120313A500831656
:103ED2000313530883120313A4000A168A150F252D
:103EE2000A168A150318762F772FA52F8316031328
:103EF200560883120313A300831603135508831273
:103F02000313A20083160313540883120313A100A0
:103F120083160313530883120313A0004230A70031
:103F22000C30A6000030A5000030A4000A168A1545
:103F32000F250A168A1503189F2FA02FA52F83126B
:103F42000313091089140911423083120313A300C9
:103F52001030A2000030A1000030A000831603132D
:103F6200560883120313A7008316031355088312FE
:103F72000313A60083160313540883120313A50028
:103F820083160313530883120313A4000A168A1517
:103F92000F250A168A150318CF2FD02FD52F83127B
:103FA2000313091089100915AC3083120313EE00B4
:103FB2006E0883160313A8005608AC005508AB0020
:103FC2005408AA005308A900D9300A128A111C20E9
:103FD2000A168A15F801F80A02300A168A151A21F9
:103FE2000A168A15D930F7000030F8000A168A1529
:0E3FF2005C220A168A15831203139F1408001E
:04400E00D420FF3F7C
:00000001FF
