:020000040000FA
:060000000A128A110C280F
:10000800FE00030EF4000A08F5000A128A118B2973
:100018000A128A110F28F001F101F201F30183019C
:100028000A128A111C2972087304031D1C281D2832
:100038002428831203130814091489103F308700F9
:1000480072037304031D29282A28322883120313F4
:1000580088140810091489100630870002307206C7
:100068007304031D38283928412883120313881084
:100078000815091489105B30870003307206730471
:10008800031D472848285028831203130811881590
:10009800091489104F308700043072067304031D59
:1000A800562857285F288312031388110816091445
:1000B800891066308700053072067304031D6528B1
:1000C80066286E28831203130812881609148910EB
:1000D8006D308700063072067304031D7428752876
:1000E8007D288312031388120817091489107D309C
:1000F8008700073072067304031D832884288C2820
:10010800831203130813881709148910073087000E
:10011800083072067304031D922893289B288312C3
:10012800031308138817091489107F3087000930D2
:1001380072067304031DA128A228AA288312031398
:1001480008138817091489106F3087000A3072065F
:100158007304031DB028B128B928831203130813A8
:10016800881709108914773087000B3072067304DA
:10017800031DBF28C028C828831203130813881733
:10018800091089147C3087000C3072067304031D33
:10019800CE28CF28D72883120313081388170910ED
:1001A8008914393087000D3072067304031DDD2869
:1001B800DE28E62883120313081388170910891408
:1001C8005E3087000E3072067304031DEC28ED289C
:1001D800F528831203130813881709108914793036
:1001E80087000F3072067304031DFB28FC280429BE
:1001F80083120313081388170910891471308700B4
:10020800F31F072908290C290F30F2000030F300EA
:100218007308803AFF0080307F02031D15291030D3
:100228007202031C182919291B29F201F30108007D
:100238000A128A1172210A128A1162294130F700C2
:10024800EE30F600F60B2629F70B262900000A12D5
:100258008A1117200A128A11831203138618352966
:1002680036293A290130F0000030F100861C3D297A
:100278003E294E2970037104031D432944294E2940
:100288007208FF3EF20073080318013EFF3EF300B8
:10029800F001F1017308803AFF0080307F02031DEE
:1002A800572908307202031C5A295B295F298312D7
:1002B8000313091562298312031309117308803A7D
:1002C800FF0080307F02031D6B2915307202031C6A
:1002D8006E296F2922290A128A110C2883160317FE
:1002E80088018901033083160313850003308600D3
:1002F800870188018901831203130611850188018A
:100308008701033089008B170B170B1608008B1C0D
:100318008E298F2998298B107208013EF2007308E4
:100328000318013E003EF30075088A00740E83002E
:06033800FE0E7E0E09001E
:04400E00D120FF3F7F
:00000001FF
