:020000040000FA
:060000000A128A11FA2F1A
:100D22008316031788018901033083160313850094
:100D320086018701880189018312031388018701D3
:100D42000330890008000A128A1191260A128A11B8
:100D5200E52E4E30F300EB30F200F20BAE2EF30B29
:100D6200AE2E83120313051CB72EB82EC02E7008A8
:100D7200013EF00071080318013E003EF100851C9F
:100D8200C32EC42ECC2E7008FF3EF000710803184B
:100D9200013EFF3EF1007108803AFF0080307F0281
:100DA200031DD52E08307002031CD82ED92EDD2E3D
:100DB200831203130915E02E8312031309110A1279
:100DC2008A11F5260A128A117108803AFF008030D2
:100DD2007F02031DEE2E15307002031CF12EF22E3F
:100DE200AA2E0A128A11002870087104031DFA2E15
:100DF200FB2E022F831203130814091489103F30AB
:100E0200870070037104031D072F082F102F831210
:100E12000313881408100914891006308700023061
:100E220070067104031D162F172F1F2F8312031331
:100E320088100815091489105B308700033070068A
:100E42007104031D252F262F2E2F83120313081141
:100E52008815091489104F30870004307006710418
:100E6200031D342F352F3D2F8312031388110816CB
:100E72000914891066308700053070067104031D5D
:100E8200432F442F4C2F8312031308128816091480
:100E920089106D308700063070067104031D522FD1
:100EA200532F5B2F8312031388120817091489101A
:100EB2007D308700073070067104031D612F622F99
:100EC2006A2F831203130813881709148910073035
:100ED2008700083070067104031D702F712F792F5F
:100EE2008312031308138817091489107F308700AF
:100EF200093070067104031D7F2F802F882F831203
:100F0200031308138817091489106F3087000A30F9
:100F120070067104031D8E2F8F2F972F83120313D8
:100F22000813881709108914773087000B30700670
:100F32007104031D9D2F9E2FA62F831203130813E6
:100F42008817091089147C3087000C3070067104F0
:100F5200031DAC2FAD2FB52F83120313081388176F
:100F620009108914393087000D3070067104031D91
:100F7200BB2FBC2FC42F8312031308138817091029
:100F820089145E3087000E3070067104031DCA2F6B
:100F9200CB2FD32F83120313081388170910891438
:100FA200793087000F3070067104031DD92FDA2FB4
:100FB200E22F831203130813881709108914713062
:100FC2008700F11FE52FE62FEA2F1430F0000030E2
:100FD200F1007108803AFF0080307F02031DF32F79
:100FE20015307002031CF62FF72FF92FF001F101D3
:0E0FF2000800F001F10183010A128A11A42EF9
:04400E00D120FF3F7F
:00000001FF
