:020000040000FA
:060000000A128A110C280F
:10000800FE00030EFA000A08FB000A128A113329BF
:100018000A128A110F2883133030FD000130FE00C8
:100028009430FF00203084000A128A1185210A12B8
:100038008A11F001F101F201F301F401F501F60171
:10004800F70183010A128A11C0287708803AFF0055
:1000580080307F02031D322864307602031C352865
:1000680036289D28F601F7019D28831203130810EE
:100078008810081188110812881208138813BF28DD
:1000880083120313081488100811881108128812A3
:1000980008138813BF28831203130814881408113F
:1000A80088110812881208138813BF2883120313B3
:1000B80008150814881408158811081288120813DE
:1000C8008813BF2883120313081488140815881589
:1000D8000812881208138813BF2883120313081400
:1000E8008814081588150816881208138813BF285D
:1000F800831203130814881408158815081688161F
:1001080008138813BF2883120313081488140815CA
:1001180088150816881608178813BF288312031332
:1001280008148814081588150816881608178817DB
:10013800BF287708003A0319A228BF287608003A92
:1001480003193928013A03194428033A03194F2897
:10015800013A03195A28073A03196628013A03197C
:100168007128033A03197C28013A031987280F3AA2
:1001780003199228BF2808000A128A115C210A1262
:100188008A112329831203139F18CB28CC28F3281C
:100198007308FD007208FC0004300310FD0CFC0C11
:1001A800FF3E031DD1280F307C05F20000307D058D
:1001B800F3000F307005F00000307105F10072088F
:1001C800203E840083130008870009140910700872
:1001D800203E840000088700891489109F140A12A1
:1001E8008A1129200A128A11831203138618FD28FE
:1001F800FE2802290130F4000030F500861C05298C
:100208000629162974037504031D0B290C291629C0
:100218007608FF3EF60077080318013EFF3EF70018
:10022800F401F50173087702031D1C297208760290
:1002380003181F29202922290915232909117708BC
:10024800803AFF0080307F02031D2C29633076023C
:10025800031C2F293029C6280A128A110C288B1C46
:100268003629372940298B107608013EF600770891
:100278000318013E003EF700831203130C1F4529A3
:10028800462955290C131E08F800F9017808F200D0
:100298007908F3001E08F800F9017808F0007908D9
:1002A800F1007B088A007A0E8300FE0E7E0E09009C
:1002B80083160317880189018316031385012330E8
:1002C800860087018801890183120313850188014B
:1002D8008701033089008B170B170B161F179F1305
:1002E8001F159F111F169F161F14831603139F13A4
:1002F8000C17831203130C1308007E088A007F086A
:1003080082000A128A1181210A128A118000840A45
:1003180004087D0603190034FF0A0319FE0A85291B
:100328003F3406345B344F3466346D347D340734DF
:100338007F346F3477347C3439345E3479347134B3
:04400E00D220FF3F7E
:00000001FF
