:020000040000FA
:060000000A128A11FA2F1A
:100EB4008316031788018901033083160313860000
:100EC40087018801831203138701880108000A122D
:100ED4008A115A270A128A11962F4E30F300EB30EA
:100EE400F200F20B732FF30B732F83120313061C00
:100EF4007C2F7D2F852F7008013EF00071080318A8
:100F0400013E003EF100061C882F892F912F7008A6
:100F1400FF3EF00071080318013EFF3EF1000A1283
:100F24008A11A6270A128A117108803AFF008030BC
:100F34007F02031D9F2F05307002031CA22FA32FD5
:100F44006F2F0A128A11002870087104031DAB2F39
:100F5400AC2FB32F831203130814881008118811BF
:100F6400081270037104031DB82FB92FC02F831208
:100F7400031308108814081188110812023070062F
:100F84007104031DC62FC72FCE2F8312031308101D
:100F94008810081588110812033070067104031DA7
:100FA400D42FD52FDC2F83120313081088100811B7
:100FB40088150812043070067104031DE22FE32F14
:100FC400EA2F8312031308108810081188110816D9
:100FD4007108803AFF0080307F02031DF32F053033
:100FE4007002031CF62FF72FF92FF001F10108000E
:0C0FF400F001F10183010A128A11692F3B
:04400E00D120FF3F7F
:00000001FF
