:020000040000FA
:060000000A128A11FA2F1A
:100EAC008316031788018901033083160313860008
:100EBC0087018801831203138701880108000A1235
:100ECC008A1156270A128A11922F4E30F300EB30FA
:100EDC00F200F20B6F2FF30B6F2F83120313061C10
:100EEC00782F792F812F7008013EF00071080318BC
:100EFC00013E003EF100861C842F852F8D2F70083B
:100F0C00FF3EF00071080318013EFF3EF1000A128B
:100F1C008A11A2270A128A117108803AFF008030C8
:100F2C007F02031D9B2F05307002031C9E2F9F2FE9
:100F3C006B2F0A128A11002870087104031DA72F49
:100F4C00A82FAF2F831203130814881008118811CF
:100F5C00081270037104031DB42FB52FBC2F83121C
:100F6C000313081088140811881108120230700637
:100F7C007104031DC22FC32FCA2F83120313081031
:100F8C008810081588110812033070067104031DAF
:100F9C00D02FD12FD82F83120313081088100811CB
:100FAC0088150812043070067104031DDE2FDF2F24
:100FBC00E62F8312031308108810081188110816E5
:100FCC007108803AFF0080307F02031DEF2F05303F
:100FDC0070020318F22FF32FF72FF11FF62FF72FB4
:100FEC00F92FF001F1010800F001F10183010A125F
:040FFC008A11652FC2
:04400E00D120FF3F7F
:00000001FF
