:020000040000FA
:060000000A128A11FC2F18
:100ED200F0007008831203139300080083160313B3
:100EE200141C742F752F6F2F08000A128A116F2796
:100EF2000A128A118312031313080800F3008316DF
:100F020003138712731D862F872F8B2F720894006D
:100F120087158F2F7008720494008711730871046B
:100F220083120313940008008316031788018901B2
:100F320083160313071186018801831203138601A6
:100F42008801013083160313890083120313890178
:100F52000715F001F101F20120300A128A117F27F0
:100F62000A128A1108000A128A1195270A128A1196
:100F72008312031307110330F5009730F400F40BCA
:100F8200C02FF50BC02FC52F83120313091CCA2FC4
:100F9200CB2FD92F06080A128A1169270A128A1141
:100FA2000A128A1176270A128A1183120313880001
:100FB2000330F5009730F400F40BDD2FF50BDD2F35
:100FC200E22F8312031307150330F6008A30F5006F
:100FD2005530F400F40BEB2FF50BEB2FF60BEB2F48
:100FE200F22F0130F4007408831203138607B92F1D
:0E0FF2000A128A11002883010A128A11B42FF4
:04400E00D620FF3F7A
:00000001FF
