:020000040000FA
:060000000A128A110C280F
:10000800FE00030EF3000A08F4000A168A15282CCD
:100018000A128A110F2883160313CE01CF01D001CB
:10002800D101D201D301D40183010A168A15C22E47
:1000380083160313C300A930AD002D08B6008B2F1B
:1000480025304A06031929282A2836284A08AD00E7
:10005800430884002D08831380000130AD002D086B
:10006800C3078B2FB701B801280884000A128A1524
:100078000A200A128A112E3A031D43284428892887
:1000880038170130AD002D08A807C401C50178282C
:100098000A30F5000030F600831603134508F8000F
:1000A8004408F7000A168A15A1240A128A1176084C
:1000B80083160313C5007508C400280884000A12B3
:1000C8008A150A200A128A11D03EAD00FF300318A3
:1000D8000030AE002D08C4070318C50A2E08C5074E
:1000E8000130AD002D08A807280884000A128A15D7
:1000F8000A200A128A110A168A15C7230A128A11B7
:100108000318872888284C288F28C401C501381669
:100118008F283815AB28013083160313A807FF3042
:10012800280784000A128A150A200A128A11CA00AE
:10013800AD00AE012E08003A0319A3288B2F2D0815
:10014800003A03199D2F663A03198D288B2F00302A
:100158003705AD0007303805AE002D082E04031909
:10016800B628B728462F381EBA28BB28BF2806301D
:10017800C4000030C5003608840083130008C60098
:10018800840A0008C700840A0008C800840A000816
:10019800C9000430AD002D08B607490883120313BF
:1001A800A30083160313480883120313A2008316BF
:1001B8000313470883120313A10083160313460889
:1001C80083120313A0000030A7000030A6000030FF
:1001D800A5000030A4000A168A1190200A128A117C
:1001E8000318F728F8281529831603134908F80077
:1001F8004808F7004708F6004608F5000A168A1569
:10020800AC230A128A11780883160313C9007708E9
:10021800C8007608C7007508C6000330B704003068
:10022800B80483160313BD01BE01490883120313E2
:10023800A30083160313480883120313A20083162E
:100248000313470883120313A100831603134608F8
:1002580083120313A0000030A7000030A60000306E
:10026800A5000030A4000A168A15CC250A128A11A6
:1002780003183F2940295C2A031083160313480DED
:10028800490D823EBD00FF3003180030BE00FF302C
:10029800BD070318BE0AFF30BE070330F500003063
:1002A800F6003E08F8003D08F7000A168A15A12452
:1002B8000A128A11760883160313BE007508BD005A
:1002C8000A3083120313A3000030A400831603131B
:1002D8003E0883120313A600831603133D088312F6
:1002E8000313A5000A128A15D3200A128A11831251
:1002F8000313240883160313BE0083120313230871
:1003080083160313BD00BE1F8A298B299129FF304C
:10031800BD070318BE0AFF30BE073D03FF3A0A12A5
:100328008A159D240A128A11831203134908831619
:100338000313C20083120313480883160313C10072
:1003480083120313470883160313C0008312031391
:10035800460883160313BF00490883120313AF002E
:1003680083160313480883120313AE00831603137E
:10037800470883120313AD0083160313460883123C
:100388000313AC0083160313420883120313B3004C
:1003980083160313410883120313B2008316031351
:1003A800400883120313B100831603133F08831216
:1003B8000313B0000A128A153C210A128A1183120B
:1003C80003132F0883160313C200831203132E0886
:1003D80083160313C100831203132D088316031316
:1003E800C000831203132C0883160313BF004208AE
:1003F80083120313A3008316031341088312031304
:10040800A20083160313400883120313A100831666
:1004180003133F0883120313A0003F30A700803066
:10042800A6000030A5000030A4000A168A1190200A
:100438000A128A110318212A222A2B2AFF3083162E
:100448000313BD070318BE0AFF30BE075C2A8316D4
:100458000313420883120313A300831603134108EE
:1004680083120313A2008316031340088312031395
:10047800A100831603133F0883120313A000413021
:10048800A7002030A6000030A5000030A4000A16FE
:100498008A1190200A128A11031C532A542A5C2AB2
:1004A800013083160313BD070318BE0A0030BE07C8
:1004B800831603134508803AFF0080307F02031D2E
:1004C800672A0D30440203186A2A6B2AB22A831657
:1004D800031344080A168A116B230A128A1183121D
:1004E80003134908DD004808DC004708DB0046081C
:1004F800DA0083160313490883120313E1008316F5
:100508000313480883120313E000831603134708F4
:1005180083120313DF0083160313460883120313A1
:10052800DE000A168A1178250A128A11831203132B
:100538005D0883160313C900831203135C0883162E
:100548000313C800831203135B0883160313C70041
:10055800831203135A0883160313C6008316031362
:100568003E08803AFF0080307F02031DBD2A0A3012
:100578003D020318C02AC12A202B831603134908F9
:1005880083120313A300831603134808831203136B
:10059800A20083160313470883120313A1008316CE
:1005A8000313460883120313A0000030A70000308D
:1005B800A6000030A5000030A4000A168A15CC2534
:1005C8000A128A110318E92AEA2ACC2B8316031384
:1005D800490883120313DC008316031348088312A7
:1005E8000313DB0083160313470883120313DA008F
:1005F80083160313460883120313D9000A168A15B3
:1006080084270A128A11831203135C085B045A04B4
:100618005904031D102B112BCC2B831603133E08F2
:10062800803AFF0080307F02031D1C2B02303D0200
:10063800031C1F2B202BCC2B831603134208831279
:100648000313A30083160313410883120313A200A4
:1006580083160313400883120313A10083160313A0
:100668003F0883120313A0004030A7008930A6007A
:100678007030A5005F30A4000A168A1190200A1273
:100688008A110318482B492B522BF7308316031372
:10069800BD070318BE0AFF30BE075A2BF830831671
:1006A8000313BD070318BE0AFF30BE073D080A1230
:1006B8008A159D240A128A11831203134908831686
:1006C8000313C20083120313480883160313C100DF
:1006D80083120313470883160313C00083120313FE
:1006E800460883160313BF00490883120313A300A7
:1006F80083160313480883120313A20083160313F7
:10070800470883120313A1008316031346088312B4
:100718000313A00083160313420883120313A700D0
:1007280083160313410883120313A60083160313C9
:10073800400883120313A500831603133F0883128E
:100748000313A4000A168A11AD220A128A11831211
:100758000313230883160313BC0083120313220810
:1007680083160313BB008312031321088316031394
:10077800BA0083120313200883160313B90000304C
:10078800C9000030C8000030C7000030C6004E2C39
:1007980083160313490883120313DC00831603131B
:1007A800480883120313DB008316031347088312D8
:1007B8000313DA0083160313460883120313D900C0
:1007C8000A168A1584270A128A11831203135C08F1
:1007D80083160313BC00831203135B0883160313E9
:1007E800BB00831203135A0883160313BA0083123B
:1007F8000313590883160313B9003C088312031323
:10080800AF00831603133B0883120313AE0083164D
:1008180003133A0883120313AD0083160313390830
:1008280083120313AC0000300A168A1134210A120D
:100838008A11831203132F0883160313A30083124C
:1008480003132E0883160313A200831203132D0823
:1008580083160313A100831203132C0883160313B2
:10086800A0004908A7004808A6004708A5004608B0
:10087800A4000A168A151C260A128A118316031365
:100888002308C9002208C8002108C7002008C6009C
:10089800BD01BE01CA01CA0A4A08AD0001300310F1
:1008A800AD0DFF3E031D532C03102D0D693E840032
:1008B8000A128A150A200A128A11AE000A128A152B
:1008C8000A200A128A11AF000A128A150A200A128F
:1008D8008A11B0000A128A150A200A128A11B10078
:1008E80031083C02031D822C30083B02031D822C78
:1008F8002F083A02031D822C2E0839020318852C72
:10090800862C872C912C0130AD002D08CA070A309F
:100918004A06031D902C912C502C03303705AD004E
:1009280000303805AE002D082E0403199C2C9D2C90
:100938004F2D2D30AD00430884002D08831380000F
:100948000130AD002D08C3074F2D4A08AD00013016
:100958000310AD0DFF3E031DAC2C03102D0D693E99
:1009680084000A128A150A200A128A1183120313B4
:10097800A0000A128A150A200A128A11A1000A1276
:100988008A150A200A128A11A2000A128A150A2058
:100998000A128A11A300831603133C088312031357
:1009A800A700831603133B0883120313A6008316BC
:1009B80003133A0883120313A50083160313390897
:1009C80083120313A4000A168A151C270A128A1117
:1009D80083120313230883160313C200831203131D
:1009E800220883160313C1008312031321088316F8
:1009F8000313C00083120313200883160313BF00D8
:100A0800003083120313A3000030A2000030A100BD
:100A18000A30A00083160313420883120313A700A9
:100A280083160313410883120313A60083160313C6
:100A3800400883120313A500831603133F0883128B
:100A48000313A4000A168A156C260A128A11831247
:100A58000313230883160313C20083120313220807
:100A680083160313C100831203132108831603138B
:100A7800C00083120313200883160313BF003F0826
:100A8800303EAD00430884002D08831380000130F8
:100A9800AD002D08C3070130CA024A0A031D552DAF
:100AA800562DA92C6A2D303083160313AD00430848
:100AB80084002D08831380000130AD002D08C30782
:100AC800FF30BD070318BE0AFF30BE073E08803A54
:100AD800FF0080307F02031D732D01303D02031893
:100AE800762D772D572D831603134508803AFF007E
:100AF80080307F02031D822D09304402031C852D9E
:100B0800862D8D2D083083160313AD002D08CA00DD
:100B1800932D831603134408AD002D08CA004A0814
:100B2800AD00AE012D08C4022E08031CC503C50282
:100B38004A080319A02DA12DAC2D2E30AD00430875
:100B480084002D08831380000130AD002D08C307F1
:100B58004A080A128A159D240A128A11831203135D
:100B6800490883160313B500831203134808831634
:100B78000313B40083120313470883160313B30047
:100B880083120313460883160313B2003508831231
:100B98000313B30083160313340883120313B2003C
:100BA80083160313330883120313B1008316031348
:100BB800320883120313B000831603134908831203
:100BC8000313AF0083160313480883120313AE0000
:100BD80083160313470883120313AD008316031308
:100BE800460883120313AC000A128A153C210A1224
:100BF8008A11831203132F08DC002E08DB002D084E
:100C0800DA002C08D9000A168A1584270A128A11D4
:100C1800831203135C0883160313BC0083120313A7
:100C28005B0883160313BB00831203135A08831649
:100C38000313BA0083120313590883160313B90068
:100C4800262F4A08AD0001300310AD0DFF3E031DED
:100C5800282E03102D0D693E84000A128A150A20D9
:100C68000A128A1183120313A0000A128A150A2095
:100C78000A128A11A1000A128A150A200A128A1178
:100C8800A2000A128A150A200A128A11A3008316E2
:100C980003133C0883120313A700831603133B08AE
:100CA80083120313A600831603133A08831203134F
:100CB800A50083160313390883120313A4000A1628
:100CC8008A151C270A128A11831203132308831614
:100CD8000313C20083120313220883160313C100EF
:100CE80083120313210883160313C000831203130E
:100CF800200883160313BF00003083120313A300D8
:100D08000030A2000030A1000A30A00083160313AF
:100D1800420883120313A7008316031341088312A2
:100D28000313A60083160313400883120313A500B8
:100D3800831603133F0883120313A4000A168A15A7
:100D48006C260A128A1183120313230883160313CD
:100D5800C20083120313220883160313C1008312EF
:100D68000313210883160313C000831203132008FA
:100D780083160313BF003F08303EAD0043088400CC
:100D88002D08831380000130AD002D08C3074A08E1
:100D9800AD0001300310AD0DFF3E031DCE2E031034
:100DA8002D0D693E84000A128A150A200A128A113A
:100DB80083120313A0000A128A150A200A128A1144
:100DC800A1000A128A150A200A128A11A2000A1220
:100DD8008A150A200A128A11A300831603133C08F5
:100DE80083120313A700831603133B08831203130C
:100DF800A600831603133A0883120313A50083166B
:100E08000313390883120313A4000A168A156C26E3
:100E18000A128A1183120313230883160313BC00D2
:100E280083120313220883160313BB0083120313D0
:100E3800210883160313BA008312031320088316AC
:100E48000313B9000130CA024A0A031D2C2F2D2FA3
:100E5800252E3F2F3030AD00430884002D08831322
:100E680080000130AD002D08C307FF30C407031808
:100E7800C50AFF30C50744084504031D442F452F04
:100E88002E2F8B2F44084504031D4B2F4C2F5A2F10
:100E98003C083B043A043904031D532F542F5A2F9E
:100EA8000130C4070318C50A0030C5074508803A51
:100EB800803C031D612F44084A020318642F652FE4
:100EC800662F752F831603134508803AAD008030CE
:100ED8002D02031D712F4A0844020318742F752F21
:100EE800752F0330831603133705AD00003038051E
:100EF800AE002D082E040319822F832F8B2F2D303F
:100F0800AD00430884002D08831380003128013088
:100F1800A807FF30280784000A128A150A200A1237
:100F28008A11AD002D08CA004A08031D9C2F9D2F69
:100F380024284308840083138001080083120313C4
:100F4800A201F81FA82FA92FB02FF709F809F70A4F
:100F58000319F80AA201A20AF61FB32FB42FB92F5A
:100F6800F509F609F50A0319F60A7508760403194E
:100F7800BE2FBF2FEE2FA101A10ACD2F01300310E4
:100F8800F50DF60DFF3E031DC32F0130A00020080C
:100F9800A107F61FD02FD12FC22F76087802031D84
:100FA800D72F75087702031CDA2FDB2FE12F75087E
:100FB800F7027608031CF803F80201300310F60C58
:100FC800F50CFF3E031DE22F0130A102031DED2F9A
:100FD800EE2FD12F22080319F22FF32FF82FF7093C
:100FE800F809F70A0319F80A7808F6007708F500EF
:020FF8000800EF
:10100000FF1B0A2883137F1883170008840A03191B
:10101000FF0A080008308A000408840A82070034A6
:101020000034003480343F34003400342034413400
:1010300000340034C8344234003400347A34443448
:10104000003440341C34463400345034C334473404
:1010500000342434743449348034963418344B3496
:101060002034BC34BE344C3428346B346E344E34AB
:10107000F934023415345034EC347834AD346034FF
:10108000CA34F234493471340034003480343F348B
:10109000CD34CC34CC343D340A34D73423343C34CE
:1010A0006F34123483343A341734B734D13438348B
:1010B000AC34C53427343734BD3437348634353412
:1010C0009534BF34D63433347734CC342B34323483
:1010D0005F34703489343034FF34E634DB342E34FA
:1010E0000834E5343C341E3460344234A2340D34C8
:1010F00001340034003400340A3400340034003445
:101100006434003400340034E834033400340034F0
:101110001034273400340034A034863401340034D1
:10112000403442340F3400348034963498340034E0
:101130000034E134F53405340034CA349A343B3495
:101140004634653472346E3461346E3464346F34D2
:101150004634693467347534653472346F346134BD
:1011600000344434493447344934543441344C34E1
:1011700020343234003456346F346C3474343134A7
:10118000003425342E3433346634003400300A16EB
:101190008A15D9230A128A1501300A168A15D9230D
:1011A0000A128A15080083120313A901A41FD92863
:1011B000DA28E128A309A409A30A0319A40AA901AA
:1011C000A90AA61FE428E528EE28A509A609A50A6C
:1011D0000319A60A0130A7002708A906AA01AB0136
:1011E000230824040319F528F6282D29A801A80AA4
:1011F000042901300310A30DA40DFF3E031DFA289E
:101200000130A7002708A807A41F07290829F928E3
:1012100001300310AA0DAB0DFF3E031D0929240860
:101220002602031D152923082502031C1829192944
:1012300020292308A5022408031CA603A6022A14B9
:1012400001300310A40CA30CFF3E031D2129013023
:10125000A802031D2C292D29082929080319312941
:1012600032293729AA09AB09AA0A0319AB0A2B08A4
:10127000A4002A08A3000800831203132F08803952
:10128000B4003408B9002F08B4003407B50035089D
:10129000BF00AE1F4C294D294E293F143F080319AA
:1012A0005229532962293F0A031D572958296029C9
:1012B0000030AF000030AE000030AD000030AC00B8
:1012C000AE176A290030AF000030AE000030AD002C
:1012D0000030AC0033088039B4003408B906330854
:1012E000B4003407B5003508BE00B21F782979294B
:1012F0007A293E143E0803197E297F298E293E0A49
:10130000031D832984298C290030B3000030B200EA
:101310000030B1000030B000B21796290030B300A1
:101320000030B2000030B1000030B0003E080319B8
:101330009A299B29A0293F08031D9F29A029A92993
:101340000030AF000030AE000030AD000030AC0027
:101350009C2C2C08B4003408F50032080A168A15B3
:1013600078240A128A15760883120313C5007508BB
:10137000C4004408B400B501B601B7013708BD0088
:101380003608BC003508BB003408BA004508B40074
:10139000B501B601B7013708C3003608C2003508E9
:1013A000C1003408C0002D08B4003408F50031082D
:1013B0000A168A1578240A128A15760883120313EE
:1013C000C5007508C4004408B400B501B601B701F2
:1013D0003408BA07350803110318013E0319F1292F
:1013E000BB07360803110318013E0319F829BC078F
:1013F000370803110318013E0319FF29BD074508EB
:10140000B400B501B601B7013408C00735080311AF
:101410000318013E03190D2AC107360803110318EA
:10142000013E0319142AC207370803110318013EAD
:1014300003191B2AC3072E08B4003408F50030082E
:101440000A168A1578240A128A157608831203135D
:10145000C5007508C4004408B400B501B601B70161
:101460003408BA07350803110318013E0319392A55
:10147000BB07360803110318013E0319402ABC07B5
:10148000370803110318013E0319472ABD07450811
:10149000B400B501B601B7013408C007350803111F
:1014A0000318013E0319552AC10736080311031812
:1014B000013E03195C2AC207370803110318013ED5
:1014C0000319632AC3070830B4000310BA0DBB0D1B
:1014D000BC0DBD0DB40B652A2D08B4003408F50011
:1014E00030080A168A1578240A128A15760883129B
:1014F0000313C5007508C4004408B4004508B500CE
:10150000B601B7013408BA07350803110318013EC4
:1015100003198B2ABB07360803110318013E031970
:10152000922ABC07370803110318013E0319992AB0
:10153000BD072C08B4003408F50031080A168A15D6
:1015400078240A128A15760883120313C5007508D9
:10155000C4004408B4004508B500B601B70134081A
:10156000BA07350803110318013E0319B82ABB074F
:10157000360803110318013E0319BF2ABC073708B8
:1015800003110318013E0319C62ABD070830B40031
:101590000310BA0DBB0DBC0DBD0DB40BC82A2C0831
:1015A000B4003408F50030080A168A1578240A12A7
:1015B0008A15760883120313C5007508C400440811
:1015C000B4004508B500B601B7013408BA073508BC
:1015D00003110318013E0319EE2ABB073608031155
:1015E0000318013E0319F52ABC0737080311031835
:1015F000013E0319FC2ABD072D08B4003408F5008C
:1016000032080A168A1578240A128A157608831277
:101610000313C5007508C4004408B4004508B500AC
:10162000B601B7013408C007350803110318013E9D
:1016300003191B2BC107360803110318013E0319B8
:10164000222BC207370803110318013E0319292B67
:10165000C3072E08B4003408F50031080A168A15AD
:1016600078240A128A15760883120313C5007508B8
:10167000C4004408B4004508B500B601B7013408F9
:10168000C007350803110318013E0319482BC10791
:10169000360803110318013E03194F2BC207370800
:1016A00003110318013E0319562BC3072E08B4007B
:1016B0003408F50032080A168A1578240A128A15A9
:1016C000760883120313C5007508C4004408B400EB
:1016D0004508B500B601B70108300310B40DB50DCB
:1016E000B60DB70DFF3E031D6D2B3408C00735083E
:1016F00003110318013E03197E2BC107360803119D
:101700000318013E0319852BC2073708031103187C
:10171000013E03198C2BC3073A08B4003B08B500FF
:101720003C08B6003D08B70018300310B70CB60CE3
:10173000B50CB40CFF3E031D952B3408C0073508CB
:1017400003110318013E0319A62BC1073608031124
:101750000318013E0319AD2BC20737080311031804
:10176000013E0319B42BC3070830B4000310BA0DAF
:10177000BB0DBC0DBD0DB40BB62B3F083E07B4002E
:10178000B501B50D3408823EC40035080318013E8A
:10179000FF3EC500E82B0130B4000310C00DC10DA1
:1017A000C20DC30DB40BCD2BBD1FD72BD82BD92BFE
:1017B00040140130B4000310BA0DBB0DBC0DBD0DBB
:1017C000B40BDB2BFF30C4070318C50AFF30C50775
:1017D000C21FEB2BEC2BCB2BBE01BD1FF02BF12B33
:1017E0000D2CFF303A05B400FF303B05B500FF304B
:1017F0003C05B6007F303D05B70037083604350498
:1018000034040319042C052C082CBE01BE0A0D2C2F
:10181000401C0B2C0C2C0D2C052C3E080319112CF4
:10182000122C432C0130C007003003180130C107CF
:10183000003003180130C207003003180130C3071D
:10184000431C232C242C432C4008B4004108B50031
:101850004208B6004308B7000130B800370DB70C96
:10186000B60CB50CB40CB80B2E2C3708C3003608D8
:10187000C2003508C1003408C0000130C407031895
:10188000C50A0030C5074508803AFF0080307F0256
:10189000031D4C2CFF304402031C4F2C502C5B2C9E
:1018A0007F3083120313C3008030C2000030C100B8
:1018B0000030C000902C831203134508803AFF00CB
:1018C00080307F02031D662C013044020318692C0E
:1018D0006A2C762C003083120313C3000030C20040
:1018E0000030C1000030C000B901902C83120313F6
:1018F0004408B4003408BF00FF30C005FF30C10504
:101900007F30C2050030C3053F1C872C882C892CF2
:10191000C2173F08B4000310340CB5003508C300EB
:101920003908B4003408C3044308AF004208AE00CD
:101930004108AD004008AC00080083120313D80032
:10194000D81FA32CA42C532ED809D80A5808803AA3
:10195000123E031CAC2CAD2C972D0A30A300003096
:10196000A4005808F700F801F71BF8036430F500ED
:101970000030F6000A128A11A2270A128A15760888
:1019800083120313A6007508A5000A128A15D32036
:101990000A128A15831203132308CA0001300310A8
:1019A000CA0DFF3E031DCF2C03104A0D593E840083
:1019B0000A128A150A200A128A15CB000A128A1501
:1019C0000A200A128A15CC000A128A150A200A1265
:1019D0008A15CD000A128A150A200A128A15CE002D
:1019E0004E08AF004D08AE004C08AD004B08AC00EF
:1019F0006430A3000030A4005808A500A601A51B70
:101A0000A6030A128A15D3200A128A158312031319
:101A10002308CF0001300310CF0DFF3E031D0B2D17
:101A200003104F0D7D3E84000A128A150A200A1207
:101A30008A15D0000A128A150A200A128A15D100C6
:101A40000A128A150A200A128A15D2000A128A1569
:101A50000A200A128A15D3005308B3005208B200B4
:101A60005108B1005008B0000A128A153C210A1230
:101A70008A15831203132F08D7002E08D6002D08CD
:101A8000D5002C08D4000A30F5000030F6005808C4
:101A9000F700F801F71BF8030A128A11A2270A12AD
:101AA0008A15750883120313CA0001300310CA0D8A
:101AB000FF3E031D562D03104A0D353E84000A12C9
:101AC0008A150A200A128A15CB000A128A150A20E2
:101AD0000A128A15CC000A128A150A200A128A15DF
:101AE000CD000A128A150A200A128A15CE004E0865
:101AF000AF004D08AE004C08AD004B08AC005708D5
:101B0000B3005608B2005508B1005408B0000A12DC
:101B10008A153C210A128A15831203132F08C90063
:101B20002E08C8002D08C7002C08C600FF2F580833
:101B3000803A753E031C9D2D9E2D262E0A30F50001
:101B40000030F6005808F700F801F71BF8030A12F6
:101B50008A11A2270A128A15750883120313CA0074
:101B600001300310CA0DFF3E031DB12D03104A0DB5
:101B7000353E84000A128A150A200A128A15CB0003
:101B80000A128A150A200A128A15CC000A128A152E
:101B90000A200A128A15CD000A128A150A200A1292
:101BA0008A15CE004E08AF004D08AE004C08AD00BF
:101BB0004B08AC000A30A3000030A4005808A50070
:101BC000A601A51BA6030A128A15D3200A128A159C
:101BD000831203132308CF0001300310CF0DFF3E03
:101BE000031DED2D03104F0D593E84000A128A1576
:101BF0000A200A128A15D0000A128A150A200A122F
:101C00008A15D1000A128A150A200A128A15D200F2
:101C10000A128A150A200A128A15D3005308B30043
:101C20005208B2005108B1005008B0000A128A15DB
:101C30003C210A128A15831203132F08C9002E08AB
:101C4000C8002D08C7002C08C600FF2F5808CA007E
:101C500001300310CA0DFF3E031D292E03104A0D4B
:101C6000353E84000A128A150A200A128A15CB0012
:101C70000A128A150A200A128A15CC000A128A153D
:101C80000A200A128A15CD000A128A150A200A12A1
:101C90008A15CE004E08C9004D08C8004C08C70080
:101CA0004B08C600FF2F5808803A123E031C592EDD
:101CB0005A2E442F0A30A3000030A4005808F70021
:101CC000F801F71BF8036430F5000030F6000A1243
:101CD0008A11A2270A128A15760883120313A60016
:101CE0007508A5000A128A15D3200A128A158312D4
:101CF00003132308CA0001300310CA0DFF3E031D61
:101D00007C2E03104A0D253E84000A128A150A20F3
:101D10000A128A15CB000A128A150A200A128A159D
:101D2000CC000A128A150A200A128A15CD000A125E
:101D30008A150A200A128A15CE004E08AF004D08F7
:101D4000AE004C08AD004B08AC006430A30000307E
:101D5000A4005808A500A601A51BA6030A128A150F
:101D6000D3200A128A15831203132308CF000130EF
:101D70000310CF0DFF3E031DB82E03104F0D493E3B
:101D800084000A128A150A200A128A15D0000A1243
:101D90008A150A200A128A15D1000A128A150A2009
:101DA0000A128A15D2000A128A150A200A128A1506
:101DB000D3005308B3005208B2005108B1005008D4
:101DC000B0000A128A153C210A128A1583120313E5
:101DD0002F08D7002E08D6002D08D5002C08D400D7
:101DE0000A30F5000030F6005808F700F801F71B3C
:101DF000F8030A128A11A2270A128A15750883129B
:101E00000313CA0001300310CA0DFF3E031D032F48
:101E100003104A0D013E84000A128A150A200A1294
:101E20008A15CB000A128A150A200A128A15CC00DC
:101E30000A128A150A200A128A15CD000A128A157A
:101E40000A200A128A15CE004E08AF004D08AE00D7
:101E50004C08AD004B08AC005708B3005608B20060
:101E60005508B1005408B0000A128A153C210A1224
:101E70008A15831203132F08C9002E08C8002D08E5
:101E8000C7002C08C600FF2F5808803A753E031C77
:101E90004A2F4B2FD32F0A30F5000030F600580898
:101EA000F700F801F71BF8030A128A11A2270A1299
:101EB0008A15750883120313CA0001300310CA0D76
:101EC000FF3E031D5E2F03104A0D013E84000A12DF
:101ED0008A150A200A128A15CB000A128A150A20CE
:101EE0000A128A15CC000A128A150A200A128A15CB
:101EF000CD000A128A150A200A128A15CE004E0851
:101F0000AF004D08AE004C08AD004B08AC000A30E5
:101F1000A3000030A4005808A500A601A51BA60335
:101F20000A128A15D3200A128A1583120313230872
:101F3000CF0001300310CF0DFF3E031D9A2F031079
:101F40004F0D253E84000A128A150A200A128A15AE
:101F5000D0000A128A150A200A128A15D1000A1224
:101F60008A150A200A128A15D2000A128A150A2036
:101F70000A128A15D3005308B3005208B200510860
:101F8000B1005008B0000A128A153C210A128A15C5
:101F9000831203132F08C9002E08C8002D08C7009C
:101FA0002C08C600FF2F5808CA0001300310CA0DC4
:101FB000FF3E031DD62F03104A0D013E84000A1276
:101FC0008A150A200A128A15CB000A128A150A20DD
:101FD0000A128A15CC000A128A150A200A128A15DA
:101FE000CD000A128A150A200A128A15CE004E0860
:101FF000C9004D08C8004C08C7004B08C6000800BF
:10200600F000700883120313930008008312031371
:10201600EF006F08EE00EE0DEE0D1F086E06C339D9
:102026006E069F009F18182819288F286F08031D11
:102036001D281E288F280530F7000030F80083166B
:1020460003135308F6005208F5000A168A15A12450
:102056000A168A11760883120313A6007508A500CE
:10206600FF30A3000030A4000A128A15D3200A16F6
:102076008A11831203132308AC002408AD00003034
:10208600AD1BFF30AE00AF0001300A168A113421B5
:102096000A168A11831203132F0883160313D1001D
:1020A600831203132E0883160313D000831203131F
:1020B6002D0883160313CF00831203132C088316EF
:1020C6000313CE00B23083120313EE006E0883169C
:1020D6000313A8005108AC005008AB004F08AA0033
:1020E6004E08A900D4300A128A111C200A168A1139
:1020F600F801F80A02300A168A1502240A168A110D
:10210600D430F7000030F8000A168A1540250A1662
:102116008A11831203139F140800003083120313DD
:102126002005F50000302105F60080302205F70075
:102136007F302305F8007808770476047504031DBC
:10214600A528A628AE280030A3000030A200003043
:10215600A1000030A00000302405F5000030250560
:10216600F60080302605F7007F302705F80078084E
:10217600770476047504031DC128C228CA280030D6
:10218600A7000030A6000030A5000030A400A31F61
:10219600CD28CE28F2280030F5000030F6000030B9
:1021A600F7008030F8002008F5022108031C210FF3
:1021B600DD28DE28F6022208031C220FE328E42885
:1021C600F7022308031C230FE928EA28F8027808F7
:1021D600A3007708A2007608A1007508A000A71F33
:1021E600F528F6281A290030F5000030F6000030F0
:1021F600F7008030F8002408F5022508031C250F97
:1022060005290629F6022608031C260F0B290C2988
:10221600F7022708031C270F11291229F80278084C
:10222600A7007708A6007608A5007508A4008030E8
:10223600A3068030A70627082302031D2C2926089B
:102246002202031D2C2925082102031D2C292408FE
:10225600200203182F2930293229031033290314A9
:10226600080083120313B400340803193B293C29E0
:102276005029AF1F3F29402950292C09B6002D09A6
:10228600B7002E09B8002F09B900B60A0319B70A14
:102296000319B80A0319B90A58292F08B9002E08D4
:1022A600B8002D08B7002C08B6002F082E042D0400
:1022B6002C04031D5F29602969290030AF00003016
:1022C600AE000030AD000030AC00EF299630B00013
:1022D6003008B5007B290130B0003008B507013061
:1022E6000310B90CB80CB70CB60CFF3E031D7329CE
:1022F600FE303905031D802981296E299D2901306B
:10230600B0003008B5070130B607003003180130B9
:10231600B707003003180130B80700300318013042
:10232600B90701300310B90CB80CB70CB60CFF3E58
:10233600031D9529FF303905031DA229A3298229EA
:10234600AF290130B5020130B0000310B60DB70D4C
:10235600B80DB90DB00BA829B81BB229B329B929F4
:10236600023035020318B829B929A4293518BC2921
:10237600BD29C529FF30B605FF30B7057F30B80542
:10238600FF30B9050310B50C3508B000B101B20134
:10239600B30118300310B00DB10DB20DB30DFF3EF1
:1023A600031DCD293008B6043108B7043208B80435
:1023B6003308B90434080319E129E229E729AF1FD4
:1023C600E529E629E729B9173908AF003808AE002C
:1023D6003708AD003608AC00080083120313200846
:1023E600F5002108F6002208F7000310760D770D98
:1023F600F8007808AD002D08031D022A032A0C2ACE
:102406000030A3000030A2000030A1000030A00080
:10241600AC2A2408F5002508F6002608F700031064
:10242600760D770DF8007808AC002C08031D1C2AE1
:102436001D2A1E2A032AA117FF30A005FF30A10579
:102446000030A205A517FF30A405FF30A505003012
:10245600A6050030AB000030AA000030A90000300D
:10246600A8007F30AD0298302C07F5007508AD0244
:102476001830F5007508AC000130F5000310A80D02
:10248600A90DAA0DAB0DF50B412A26082202031D44
:10249600522A25082102031D522A24082002031C61
:1024A600552A562A612A2408A0022508031C250F4E
:1024B600A1022608031C260AA202281401300310D2
:1024C600A00DA10DA20DFF3E031D622A0130AC0234
:1024D600031D6E2A6F2A3F2AAD1F722A732A8D2A80
:1024E6002D08803A973E0318792A7A2A7B2A032AEE
:1024F60001300310AB0CAA0CA90CA80CFF3E031D5F
:102506007C2A0130F5007508AD07031D8B2A8C2A3D
:102516007B2AA42A18302D02031C922A932A9F2A6A
:10252600032A0130F5000310A80DA90DAA0DAB0D65
:10253600F50B962A0130AD022D08031DA32AA42A05
:10254600942A2B08A3002A08A2002908A10028081B
:10255600A0000800031083120313220D230DF500BB
:102566007508AD002D08031DB92ABA2AC32A003002
:10257600A3000030A2000030A1000030A0006A2BAA
:102586000310260D270DF5007508AC002C08031D59
:10259600CD2ACE2ACF2ABA2AA217FF30A005FF30AD
:1025A600A105FF30A2050030A305A617FF30A4053C
:1025B600FF30A505FF30A6050030A7050030AB00AB
:1025C6000030AA000030A9000030A8007F30AD021C
:1025D600A0302C07F5007508AD022030F50075080F
:1025E600AC000130F5000310A80DA90DAA0DAB0D26
:1025F600F50BF62A27082302031D0B2B26082202B9
:10260600031D0B2B25082102031D0B2B240820027A
:10261600031C0E2B0F2B1E2B2408A0022508031CBF
:10262600250FA1022608031C260FA2022708031C59
:10263600270FA30228140130F5000310A00DA10DE9
:10264600A20DA30DF50B202B0130AC02031D2C2B84
:102656002D2BF42AAD1F302B312B4B2B2D08803A16
:102666009F3E0318372B382B392BBA2A013003101B
:10267600AB0CAA0CA90CA80CFF3E031D3A2B01308B
:10268600F5007508AD07031D492B4A2B392B622B24
:1026960020302D02031C502B512B5D2BBA2A013002
:1026A600F5000310A80DA90DAA0DAB0DF50B542BC3
:1026B6000130AD022D08031D612B622B522B2B0816
:1026C600A3002A08A2002908A1002808A0000800E3
:1026D60083120313D9006E305902031C732B742B1B
:1026E600832C3F30AF000030AE000030AD0000302C
:1026F600AC006430A2000030A3005908CA00CB0128
:102706004A08A4004B08A5000A168A1586250A164B
:102716008A11831203132208CC0001300310CC0D5A
:10272600FF3E031D912B03104C0D7D3E84000A12C3
:102736008A150A200A168A11CD000A128A150A205D
:102746000A168A11CE000A128A150A200A168A115A
:10275600CF000A128A150A200A168A11D0005008DC
:10276600B3004F08B2004E08B1004D08B0000A127F
:102776008A153C210A168A11831203132F08D800E2
:102786002E08D7002D08D6002C08D5000A30A20046
:102796000030A3005908CA00CB014A08F7004B08CD
:1027A600F8006430F5000030F6000A168A15042594
:1027B6000A168A11760883120313A5007508A40069
:1027C6000A168A1586250A168A1183120313220809
:1027D600CC0001300310CC0DFF3E031DED2B031082
:1027E6004C0D593E84000A128A150A200A168A11CF
:1027F600CD000A128A150A200A168A11CE000A127C
:102806008A150A200A168A11CF000A128A150A208A
:102816000A168A11D0005008AF004F08AE004E08C5
:10282600AD004D08AC005808B3005708B200560872
:10283600B1005508B0000A128A153C210A168A1101
:10284600831203132F08D4002E08D3002D08D200BC
:102856002C08D1000A30F5000030F6005908CA00ED
:10286600CB014A08F7004B08F8000A168A1504251A
:102876000A168A11750883120313CC00013003105F
:10288600CC0DFF3E031D422C03104C0D353E84003B
:102896000A128A150A200A168A11CD000A128A150A
:1028A6000A200A168A11CE000A128A150A200A166A
:1028B6008A11CF000A128A150A200A168A11D00038
:1028C6005008AF004F08AE004E08AD004D08AC00F2
:1028D6005408B3005308B2005208B1005108B000C2
:1028E6000A128A153C210A168A11831203132F082D
:1028F600C9002E08C8002D08C7002C08C600772D71
:102906000B305902031C882C892C342D3F30AF0024
:102916000030AE000030AD000030AC000A30A2003E
:102926000030A3005908CA00CB014A08A4004B088E
:10293600A5000A168A1586250A168A11831203131C
:102946002208CC0001300310CC0DFF3E031DA62C3F
:1029560003104C0D593E84000A128A150A200A16E5
:102966008A11CD000A128A150A200A168A11CE008B
:102976000A128A150A200A168A11CF000A128A1527
:102986000A200A168A11D0005008B3004F08B20078
:102996004E08B1004D08B0000A128A153C210A16ED
:1029A6008A11831203132F08D8002E08D7002D088A
:1029B600D6002C08D5000A30F5000030F60059087C
:1029C600CA00CB014A08F7004B08F8000A168A1518
:1029D60004250A168A11750883120313CC000130E8
:1029E6000310CC0DFF3E031DF32C03104C0D353E9A
:1029F60084000A128A150A200A168A11CD000A12C4
:102A06008A150A200A168A11CE000A128A150A2089
:102A16000A168A11CF000A128A150A200A168A1186
:102A2600D0005008AF004F08AE004E08AD004D086C
:102A3600AC005808B3005708B2005608B100550854
:102A4600B0000A128A153C210A168A118312031352
:102A56002F08C9002E08C8002D08C7002C08C6007C
:102A6600772D3F30AF000030AE000030AD000030B3
:102A7600AC005908CA0001300310CA0DFF3E031D01
:102A86003F2D03104A0D353E84000A128A150A208E
:102A96000A168A11CB000A128A150A200A168A110A
:102AA600CC000A128A150A200A168A11CD000A12CB
:102AB6008A150A200A168A11CE004E08B3004D0860
:102AC600B2004C08B1004B08B0000A128A153C212E
:102AD6000A168A11831203132F08C9002E08C8008C
:102AE6002D08C7002C08C6000800831203135D08D2
:102AF6008039E2006208EA005D08E2006207E3004E
:102B06006308EC00DC1F882D892D8A2D6C146C0857
:102B160003198E2D8F2D9F2D6C0A031D932D942D39
:102B26009C2D0030DD000030DC000030DB00003082
:102B3600DA00DC17DD01A72D0030DD000030DC00F7
:102B46000030DB000030DA0061088039E2006208FC
:102B5600EB006B086A060319B12DB22DB32D6A1767
:102B66006108E2006207E3006308EB00E01FBC2D8A
:102B7600BD2DBE2D6B146B080319C22DC32DD32D8D
:102B86006B0A031DC72DC82DD02D0030E100003083
:102B9600E0000030DF000030DE00E017E101DB2D51
:102BA6000030E1000030E0000030DF000030DE00E1
:102BB6006C086B020318E02DE12D252E6A1FE42D0B
:102BC600E52DE92D8030E2006208EA066C08E20095
:102BD6006208ED006B08E2006208EC006D08E20096
:102BE6006208EB005A08E2006208ED005E08E200A7
:102BF6006208DA006D08E2006208DE005B08E200A7
:102C06006208ED005F08E2006208DB006D08E20082
:102C16006208DF005C08E2006208ED006008E2007E
:102C26006208DC006D08E2006208E0005D08E20070
:102C36006208ED006108E2006208DD006D08E2004E
:102C46006208E100ED016B08E200E3016308E500BC
:102C56006C086202E400031CE5036508803AFF0085
:102C660080307F02031D392E1A306402031C3C2E6D
:102C76003D2E7A2E831203135D085C045B045A040E
:102C8600031D462E482E0130492E0030E200620810
:102C9600ED000030DD000030DC000030DB000030ED
:102CA600DA006B08E2006208EC00822E6D1C5C2ED6
:102CB6005D2E662E6D08E2000310620C0138E300FB
:102CC6006308ED00682E0310ED0C5A1C6B2E6C2E5B
:102CD6006D2EED170130E2005D0DDD0CDC0CDB0C1A
:102CE600DA0CE20B6F2E0130E2006208EC07831269
:102CF60003136B086C02031C812E822E592E6A1B4D
:102D0600852E862ED12E6C08031D8A2E8B2E942E90
:102D16000030DD000030DC000030DB000030DA007F
:102D2600FF2F5E08DA075F0803110318013E031937
:102D36009D2EDB07600803110318013E0319A42E1C
:102D4600DC07610803110318013E0319AB2EDD07EA
:102D56005D1CAE2EAF2E852F6D1CB22EB32EBC2E53
:102D66006D08E2000310620C0138E3006308ED0011
:102D7600BE2E0310ED0C5A1CC12EC22EC32EED170B
:102D86000130E2005D0DDD0CDC0CDB0CDA0CE20B35
:102D9600C52E0130E2006208EC07852F5D08803AF7
:102DA600FF006108803A7F02031DE32E60085C0283
:102DB600031DE32E5F085B02031DE32E5E085A0225
:102DC6000318E62EE72E3F2FFF30E200FF30E30028
:102DD600FF30E400FF30E5005E08E6005F08E7002C
:102DE6006008E8006108E9005A08E6025B08031C6F
:102DF6005B0FFE2EFF2EE7025C08031C5C0F042F00
:102E0600052FE8025D08031C5D0F0A2F0B2FE90250
:102E16006608E20767080318670F122F132FE307E8
:102E260068080318680F182F192FE4076908031894
:102E3600690AE5076508DD006408DC006308DB0055
:102E46006208DA008030E2006208EA06ED09ED0A5F
:102E56006D08031D2F2F302F4D2F0130DA0700305C
:102E660003180130DB07003003180130DC0700309F
:102E760003180130DD074D2F5E08DA025F08031CD8
:102E86005F0FDB026008031C600FDC026108031C95
:102E9600610FDD025D085C045B045A04031D542FB8
:102EA600552F812F6D08031D592F5A2F812F003062
:102EB600DD000030DC000030DB000030DA00FF2FE0
:102EC6000130E2000310DA0DDB0DDC0DDD0DE20B47
:102ED600652FED1F6F2F702F712F5A146D1C742FD5
:102EE600752F782F0314ED0D7A2F0310ED0D6C0856
:102EF60003197E2F7F2F812F0130EC02DC1F842FD8
:102F0600852F632FEB01ED1F892F8A2F982F6D08D0
:102F16007F3903198F2F902F932FEB01EB0A982FF0
:102F26005A1C962F972F982F902F6B0803199C2FBA
:102F36009D2FD12F0130DA07003003180130DB074F
:102F4600003003180130DC07003003180130DD07BC
:102F56005D1CAE2FAF2FD12F5A08E2005B08E300AD
:102F66005C08E4005D08E5000130E600650DE50C4F
:102F7600E40CE30CE20CE60BB92F6508DD006408EF
:102F8600DC006308DB006208DA006C0A0319CC2F48
:102F9600CD2FD12F0130E2006208EC076C0A03192D
:102FA600D52FD62FDB2F6C08031DDA2FDB2FE92F49
:102FB6000030DD000030DC000030DB000030DA00DD
:102FC6006C08031DE72FE82FE92FEA016C1CEC2F94
:102FD600ED2FEF2FDC17F32F7F30E2006208DC05C0
:102FE6006C08E2000310620CE3006308DD00EA1FD0
:0A2FF600FD2FFE2FFF2FDD1708004E
:1037580078087704760475040319B32BB42BB62BB9
:103768008030F8060800F60083120313081576085F
:10377800860088151D30F500F50BC02BC32B83126E
:10378800031388110800F600F5013A307602031891
:10379800CE2BCF2BD72B30307602031CD42BD52B36
:1037A800D72BF501F50A750C0800F70083120313EF
:1037B80008117708860088150C30F600AF30F50040
:1037C800F50BE42BF60BE42B831203138811080086
:1037D800F800831603138712781DF32BF42BF82BAC
:1037E800770894008715FC2B7508770494008711D7
:1037F80078087604831203139400080083120313D5
:10380800A1002103031D092C0A2C162C78087F3EE1
:10381800A0002008A20022080A168A15D9230A1631
:103828008A15272C02302106031D1B2C1C2C272C43
:103838007808BF3EA0002008A20022080A168A15B0
:10384800D9230A168A150800831203130C1F2D2C7E
:103858002E2C382C0C131E08F100F2017108831667
:103868000313D2007208D30083128C1D3C2C3D2C0C
:10387800482C8316031352080A168A1103200A16C5
:103888008A15831203138C1174088A00730E83003F
:10389800FE0E7E0E09008316031788018901013088
:1038A80083160313850086018801831603170814FD
:1038B8008814831203131F14831603139F138B1783
:1038C8000B170C17831203130C138C118316031395
:1038D8008C158516F501F601F70124300A168A15AC
:1038E800EC230A168A15080083120313A400A0010A
:1038F800A1017508F700F8017708A2007808A3006D
:10390800241C872C882C8E2C2208A0070318A10AB7
:103918002308A10701300310A20DA30DFF3E031DCC
:103928008F2C0310A40C2408031D9B2C9C2C842C86
:103938002108F6002008F500080083120313A001EF
:10394800A101751CA82CA92CB12C7708831203138C
:10395800A0070318A10A7808A10701300310F70D82
:10396800F80DFF3E031DB22C01300310F60CF50CC8
:10397800FF3E031DB92C75087604031DC42CC52C05
:10398800A52C831203132108F6002008F50008006F
:1039980083120313081100300A168A15D9230A1650
:1039A8008A152C3083120313A100D330A000A00B7A
:1039B800DB2CA10BDB2C30300A168A15D9230A160A
:1039C8008A15773083120313A000A00BE92C383036
:1039D8000A168A15D9230A168A1501300A168A1575
:1039E800D9230A168A1506300A168A15D9230A1603
:1039F8008A150F300A168A15D9230A168A1508005F
:103A0800750876040319092D0A2D3B2D831203131B
:103A1800A101A10A1A2D01300310F50DF60DFF3E84
:103A2800031D102D0130A0002008A107F61F1D2D31
:103A38001E2D0F2D76087802031D242D7508770298
:103A4800031C272D282D2E2D7508F7027608031C38
:103A5800F803F80201300310F60CF50CFF3E031DC5
:103A68002F2D0130A102031D3A2D3B2D1E2D780864
:103A7800F6007708F500080083120313A301A401D8
:103A8800692D23087707A1007808A0000318A00A69
:103A9800A31F4F2DA003831203132008A20022089E
:103AA800FF00210884000A128A1500200A168A15C8
:103AB8000A168A15B7230A168A15013083120313CA
:103AC800A3070318A40A0030A40723087707A10056
:103AD8007808A0000318A00AA31F732DA00383125F
:103AE80003132008A2002208FF00210884000A12FC
:103AF8008A1500200A168A15003A031D842D852D83
:103B0800452D080083120313A701A80122082304E6
:103B180003198F2D902DC72DA901A90A9E2D0130BB
:103B28000310A20DA30DFF3E031D942D0130A60026
:103B38002608A907A31FA12DA22D932D013003103C
:103B4800A70DA80DFF3E031DA32D23082502031D65
:103B5800AF2D22082402031CB22DB32DBA2D220842
:103B6800A4022308031CA503A5022714013003108F
:103B7800A30CA20CFF3E031DBB2D0130A902031D9F
:103B8800C62DC72DA22D2808A3002708A2000800CB
:103B98000030831203132005F50000302105F600DC
:103BA80080302205F7007F302305F8007808770475
:103BB80076047504031DE12DE22DEA2D0030A300E3
:103BC8000030A2000030A1000030A0000030240521
:103BD800F50000302505F60080302605F7007F3017
:103BE8002705F8007808770476047504031DFD2D71
:103BF800FE2D062E0030A7000030A6000030A500DC
:103C08000030A40027082306031D142E26082206C8
:103C1800031D142E25082106031D142E2408200632
:103C28000319172E182E1A2E03101B2E0314080022
:103C3800803083160313A306270883120313DD00BD
:103C480083160313260883120313DC008316031359
:103C5800250883120313DB00831603132408831239
:103C68000313DA0083160313230883120313E100F6
:103C780083160313220883120313E0008316031329
:103C8800210883120313DF0083160313200883120D
:103C98000313DE000A168A1178250A168A1583127C
:103CA80003135D0883160313A300831203135C0830
:103CB80083160313A200831203135B0883160313EE
:103CC800A100831203135A0883160313A0000800E7
:103CD8008312031323082204210420040319752ED8
:103CE800762EB92EF601F60A862E0130F50003105D
:103CF800A00DA10DA20DA30DF50B7B2E0130F50033
:103D08007508F607A31F892E8A2E792E2308270205
:103D1800031D982E22082602031D982E210825022D
:103D2800031D982E20082402031C9B2E9C2EAA2ECD
:103D38002008A4022108031C210FA5022208031C45
:103D4800220FA6022308031C230FA7020130031029
:103D5800A30CA20CA10CA00CFF3E031DAB2E01303E
:103D6800F602031DB82EB92E8A2E2708A3002608AE
:103D7800A2002508A1002408A00008000A168A1538
:103D88004F240A168A150A168A15CC240A168A158B
:103D9800F801F80A01300A168A1502240A168A154B
:103DA800A230F7008030F8000A168A1540250A1656
:103DB8008A15F801F80A02300A168A1502240A162A
:103DC8008A159130F7008030F8000A168A154025C8
:103DD8000A168A15023083160313CD002530CC004D
:103DE8003130CB00CB0BF62ECC0BF62ECD0BF62EAE
:103DF8000A128A15C6200A168A15F801F80A01302F
:103E08000A168A1502240A168A15AC30F700803083
:103E1800F8000A168A1540250A168A1500300A166F
:103E28008A1109200A168A15122F0A128A110C28DB
:103E3800003083120313AB000030AA000030A90041
:103E48000030A800230822042104200403192D2F80
:103E58002E2F7B2FAC01AC0A3E2F0130F50003104A
:103E6800A00DA10DA20DA30DF50B332F0130F50008
:103E78007508AC07A31F412F422F312F0130F500E1
:103E88000310A80DA90DAA0DAB0DF50B442F23089F
:103E98002702031D592F22082602031D592F210826
:103EA8002502031D592F20082402031C5C2F5D2FB7
:103EB8006C2F2008A4022108031C210FA502220848
:103EC800031C220FA6022308031C230FA702281491
:103ED80001300310A30CA20CA10CA00CFF3E031D83
:103EE8006D2F0130AC02031D7A2F7B2F422F2B0838
:103EF800A3002A08A2002908A1002808A000080099
:103F08000310831203135B0D5C0DDD005D08E300F5
:103F18006308031D902F912F9A2F0030DC0000308A
:103F2800DB000030DA000030D900FF2F5908DD002F
:103F38005A08DE005B08DF005C08E0001F30031051
:103F4800E00CDF0CDE0CDD0CFF3E031DA32F5D082B
:103F5800E1006108E200DB17FF30D905FF30DA0520
:103F6800FF30DB050030DC059630E302E31FBD2F90
:103F7800BE2FD82F6308803A973E0318C42FC52F49
:103F8800C62F912F01300310DC0CDB0CDA0CD90C96
:103F9800FF3E031DC72F0130DD005D08E307031D49
:103FA800D62FD72FC62FEF2F20306302031CDD2F0B
:103FB800DE2FEA2F912F0130DD000310D90DDA0D25
:103FC800DB0DDC0DDD0BE12F0130E3026308031D7F
:103FD800EE2FEF2FDF2F62080319F32FF42FFF2F97
:103FE800D909DA09DB09DC09D90A0319DA0A03193C
:083FF800DB0A0319DC0A0800D2
:04400E00D420FF3F7C
:00000001FF
