:020000040000FA
:060000000A128A11F62F1E
:100F5A008316031788018901033083160313860059
:100F6A00870188018312031387018601880108001B
:100F7A000A128A11AD270A128A118312031306185C
:100F8A00C72FC82FCC2F0130F4000030F500061C03
:100F9A00CF2FD02FDC2F74037504031DD52FD62F26
:100FAA00DC2F0130F60076088707F401F501861870
:100FBA00DF2FE02FE42F0130F2000030F300861C0F
:100FCA00E72FE82FC22F72037304031DED2FEE2FB4
:100FDA00C22F01308702F201F301C22F0A128A11CD
:100FEA000028F001F101F201F301F401F501830196
:060FFA000A128A11BD2F4E
:04400E00D220FF3F7E
:00000001FF
