:020000040000FA
:060000000A128A110C280F
:10000800FE00030EF7000A08F8000A128A11A22857
:100018000A128A110F28F001F101F201F301F4012B
:10002800F50183010A128A1119280A128A1162201D
:100038000A128A1183120313061823282428282851
:100048000130F4000030F500061C2B282C2840282D
:1000580074037504031D3128322840280130FA0042
:100068007A0888077008013EF00071080318013EFD
:10007800003EF100F401F501861843284428482879
:100088000130F2000030F300861C4B284C281E2853
:1000980072037304031D512852281E280130880258
:1000A8007008FF3EF00071080318013EFF3EF100A2
:1000B800F201F3011E280A128A110C28831603176D
:1000C800880189010330831603138600860188019D
:1000D800831203138601880189018B170B178C1172
:1000E800831603138C15851683120313A001A1012F
:1000F800A20124300A128A1184200A128A110800E7
:10010800F900831603138712791D8B288C289428ED
:1001180083120313220883160313940087159C285F
:1001280083120313200822048316031394008711F3
:10013800790883120313210494000800831203131F
:100148008C1DA728A828B12870080A128A11B8207F
:100158000A128A11831203138C1178088A00770E09
:100168008300FE0E7E0E0900F60076088312031344
:0401780093000800E8
:04400E00D620FF3F7A
:00000001FF
