:020000040000FA
:060000000A128A110C280F
:10000800FE00030EF1000A08F2000A128A1177288E
:100018000A128A110F28F80183010A128A1114287A
:100028000A128A1189200A128A11F70107308316E9
:10003800031386008801890183120313880189014B
:10004800831603178801890183120313061C2D28C0
:100058002E283F280130F4007408F7070230F60014
:100068004530F500A930F400F40B3828F50B382892
:10007800F60B38283F2883120313861C442845288A
:1000880054280130F7020230F6004530F500A93057
:10009800F400F40B4D28F50B4D28F60B4D28542889
:1000A80083120313061D59285A286D2877080A1247
:1000B8008A1199200A128A110230F6004530F5009B
:1000C800A930F400F40B6628F50B6628F60B6628B1
:1000D8006D28770883120313880078088900282878
:1000E8000A128A110C28831203138C1D7C287D2880
:1000F80082281308F0007008F8008C1172088A0032
:10010800710E8300FE0E7E0E090083120313141075
:1001180094101411941194161412831603131413C3
:1001280094138712071687110800F30073088312C7
:0601380003139300080010
:04400E00E12FFF3F60
:00000001FF
