:020000040000FA
:060000000A128A110C280F
:10000800FE00030EF1000A08F2000A128A1186287F
:100018000A128A110F28F701F80183010A128A11BE
:1000280015280A128A116E200A128A1183160313E0
:1000380089018601073088008312081C2428252896
:1000480036280130F4007408F7070230F60045300E
:10005800F500A930F400F40B2F28F50B2F28F60B28
:100068002F28362883120313881C3B283C284B284A
:100078000130F7020230F6004530F500A930F400EF
:10008800F40B4428F50B4428F60B44284B2883121C
:100098000313081D50285128642877080A128A116A
:1000A80098200A128A110230F6004530F500A9306E
:1000B800F400F40B5D28F50B5D28F60B5D28642829
:1000C80077088312031389007808860020280A120B
:1000D8008A110C2883120313141094101415941108
:1000E8009416141283160313141394138712071605
:1000F800871585168C150B178B1783160317880120
:1001080089010800831203138C1D8B288C289128E1
:100118001308F0007008F8008C1172088A00710E3C
:100128008300FE0E7E0E0900F3007308831203138A
:040138009300080028
:04400E00E12FFF3F60
:00000001FF
