:060000000A128A11142906
:10000800F008030EF1000B1810200B191820710EC0
:100018008300F00E700E090003138312061C850A74
:10002800861C85030B10080003138312DD30810042
:100038000B1103108601A3182D2823193128A319A1
:100048003528231A3928A31A3D280130A300A30D07
:1000580008002608870006152B2821088700861522
:100068002B282908880006162B282B0888008616B6
:0A0078002B282C08880006172B28FF
:100200008A010A140F3982073F3406345B344F34B5
:1002100066346D347D3407347F346F3477347C3406
:1002200039345E34793471345D218321542176214F
:100230008A21031383120508A000AE0046214D2138
:100240002D2123211B2928080021A9002A0800218B
:10025000AB002D080021AC000800A8016430AE02FC
:10026000031C3429A80A2E29AA016430AE070A30DB
:10027000AE02031C3D29AA0A3729AD010A30AE0798
:100280000130AE02031C0800AD0A402920080F39D6
:10029000A400200E0F39A500080024080021A600A4
:1002A00025080021A10008000313831616149614D4
:1002B0000313831206080B10080083160317880126
:1002C00089018316031385018701880106148614AA
:1002D0000611861106128612061381131514951441
:1002E0008312031385018701880108000313831615
:1002F0008112811101158114011403138312DD3061
:1003000081000B110800031383160F178F160F12AD
:100310000F1408008B178B150B108B160B11080090
:04400E00C430FF3F7C
:00000001FF
