:020000040000FA
:060000000A128A110E280D
:10000800FE00030EF1000408F2000A08F3000A12C9
:100018008A11CB2B0A128A111128F601F701F8016F
:10002800F90183120313BF01C001C101C201C30159
:10003800C401C501C601C70183010A128A11AC298E
:1000480083120313B7002D30AF002F08B200952993
:1000580025303A060319312832283E283A08AF00DD
:10006800370884002F08831380000130AF002F0861
:10007800B7079529B801B901B4012C0884000A1200
:100088008A1171240A128A110A128A11B3250A12D6
:100098008A11031C50285128912883120313B80190
:1000A800B9010A3083120313A0000030A1003908F7
:1000B800A3003808A2000A128A11C3240A128A115E
:1000C800831203132108B9002008B8002C08840003
:1000D8000A128A1171240A128A11D03EAF00FF3029
:1000E80003180030B0002F08B8070318B90A300801
:1000F800B9070130AF002F08AC072C0884000A129A
:100108008A1171240A128A110A128A11B3250A1255
:100118008A11031890289128552801308312031357
:10012800AC07FF302C0784000A128A1171240A12C6
:100138008A11BA00AF00B0013008003A0319A528A7
:1001480095292F08003A0319A729643A0319B028FA
:100158000D3A0319B0289529320884008313000842
:10016800B500840A0008B6000230AF002F08B207B5
:10017800B61FBF28C028C9280330AF002F08B40411
:10018800B509B609B50A0319B60ABA01BA0A3A088E
:10019800AF002F07013E84000A128A1171240A1247
:1001A8008A11B0000A128A1171240A128A11B10048
:1001B80031083602031DE228300835020318E52805
:1001C800E628E728F1280130AF002F08BA070530E4
:1001D8003A06031DF028F128CB28380839040319FA
:1001E800F628F7280329340803390319FC28FD28C1
:1001F8000329FF30B8070318B90AFF30B9073908CF
:10020800803A803C031D0A2938083A0203180D2950
:100218000E291A29831203133A08AF00B0012F08D8
:10022800B8023008031CB903B9021E29831203134C
:10023800B801B901380839040319232924293B29AD
:100248002030AF00370884002F0883138000013066
:10025800AF002F08B707FF30B8070318B90AFF30F7
:10026800B90738083904031D3A293B2924293408D9
:1002780003390319402941294C292D30AF0037088B
:1002880084002F08831380000130AF002F08B707C0
:100298003A08AF002F08B3008C290A30A7000030B5
:1002A800A8003308AF002F07013E84000A128A1104
:1002B80071240A128A11A0000A128A1171240A12E2
:1002C8008A11A1003608A3003508A2000A128A1173
:1002D80085230A128A11831203132108AA00200811
:1002E800A9000A128A1109240A128A118312031317
:1002F8002708303EB0003008BA003A08AF00370887
:1003080084002F08831380000130AF002F08B7073F
:10031800FF30AF002F08B307330A031D942995292E
:1003280051290130AC07FF302C0784000A128A11CA
:1003380071240A128A11AF002F08BA003A08031D67
:10034800A629A7292C2837088400831380010800D0
:100358000A128A11EA240A128A110A128A114524F9
:100368000A128A1183120313A101A10A01300A1289
:100378008A1111250A128A110B300A128A119A243D
:100388000A128A11073083120313BE003E08A10027
:1003980002300A128A1111250A128A1117300A121C
:1003A8008A119A240A128A116430F4001930F5006F
:1003B8000A128A1106260A128A110A128A1172254D
:1003C8000A128A116430F4001930F5000A128A11F1
:1003D80006260A128A1186300A128A1155250A122F
:1003E8008A110A128A113E260A128A110430F40070
:1003F8000030F5000A128A1106260A128A11903076
:100408000A128A11C5250A128A110A128A113E2671
:100418000A128A110430F4000030F5000A128A1119
:1004280006260A128A1191308312031393000A12C6
:100438008A1136260A128A110430F4000030F500B9
:100448000A128A1106260A128A110A128A1122260B
:100458000A128A1183120313BE003E08C6000A124C
:100468008A1136260A128A110A128A112D260A12B0
:100478008A110430F4000030F5000A128A110626A9
:100488000A128A110A128A1115260A128A110430D0
:10049800F4000030F5000A128A1106260A128A11A1
:1004A800043083120313BE003E08A10002300A1272
:1004B8008A1111250A128A118312031346080A1297
:1004C8008A1135230A128A110A128A118C250A12F6
:1004D8008A11EF290A128A110E2883120313A50123
:1004E800A11F772A782A7F2AA009A109A00A03193F
:1004F800A10AA501A50AA31F822A832A8C2AA20978
:10050800A309A20A0319A30A0130F4007408A50676
:10051800A601A701200821040319932A942ACB2AAB
:10052800A401A40AA22A01300310A00DA10DFF3EC8
:10053800031D982A0130F4007408A407A11FA52AF6
:10054800A62A972A01300310A60DA70DFF3E031D0A
:10055800A72A21082302031DB32A20082202031C0C
:10056800B62AB72ABE2A2008A2022108031CA30320
:10057800A302261401300310A10CA00CFF3E031D9A
:10058800BF2A0130A402031DCA2ACB2AA62A25089D
:100598000319CF2AD02AD52AA609A709A60A03191A
:1005A800A70A2708A1002608A00008008312031341
:1005B800A501A31FE02AE12AE82AA209A309A20AA1
:1005C8000319A30AA501A50AA11FEB2AEC2AF12AFF
:1005D800A009A109A00A0319A10A200821040319E6
:1005E800F62AF72A262BA401A40A052B01300310AA
:1005F800A00DA10DFF3E031DFB2A0130F400740875
:10060800A407A11F082B092BFA2A21082302031D7E
:100618000F2B20082202031C122B132B192B200846
:10062800A2022108031CA303A30201300310A10C9A
:10063800A00CFF3E031D1A2B0130A402031D252B1D
:10064800262B092B250803192A2B2B2B302BA20923
:10065800A309A20A0319A30A2308A1002208A000DB
:10066800080083120313AA000A30A0000030A1007A
:100678002A08A800A9012808A2002908A3000A122C
:100688008A1171220A128A11831203132108AC00FD
:100698002008AB002B080A128A1137250A128A1182
:1006A8006430F4000030F5000A128A1106260A1296
:1006B8008A110A3083120313A0000030A1002A080F
:1006C800A800A9012808A2002908A3000A128A1173
:1006D800DA220A128A11831203132108AC002008B7
:1006E800AB002B080A128A1137250A128A116430C6
:1006F800F4000030F5000A128A1106260A128A113F
:10070800080083120313A501A60120082104031978
:100718008E2B8F2BC62BA401A40A9D2B013003100E
:10072800A00DA10DFF3E031D932B0130F4007408AA
:10073800A407A11FA02BA12B922B01300310A50DFC
:10074800A60DFF3E031DA22B21082302031DAE2B7D
:1007580020082202031CB12BB22BB92B2008A202BD
:100768002108031CA303A302251401300310A10CC4
:10077800A00CFF3E031DBA2B0130A402031DC52B9C
:10078800C62BA12B2608A1002508A0000800831667
:1007980003130C1ED02BD12BF72B831203130C1E23
:1007A800D62BD72BF72B76080319DB2BDC2BE22B68
:1007B8007708473E84008313000899000130F00051
:1007C8007008F70705307706031DEB2BEC2BF72B8A
:1007D80076080319F02BF22B0130F32B0030F000D0
:1007E8007008F600F70183128C1EFB2BFC2B002CE3
:1007F8001A08F0007008F80073088A00720884006C
:10080800710E8300FE0E7E0E090083120313270863
:1008180028040319102C112C402CAB01AB0A1F2CF7
:1008280001300310A70DA80DFF3E031D152C013044
:10083800F5007508AB07A81F222C232C142C2808B8
:100848002A02031D292C27082902031C2C2C2D2CD5
:10085800332C2708A9022808031CAA03AA0201307E
:100868000310A80CA70CFF3E031D342C0130AB026B
:10087800031D3F2C402C232C2A08A8002908A70078
:100888000800831603138601831203138601831657
:10089800031308118811C830F4000030F5000A125B
:1008A8008A1106260A128A110C300A128A11552555
:1008B8000A128A1106300A128A1155250A128A115B
:1008C80038300A128A1155250A128A1180300A1204
:1008D8008A1155250A128A11080004308A00040872
:1008E800840A82070034013400340A340034643442
:1008F8000034E834033410342734543465346D3408
:1009080070346534723461347434753472346134DB
:10091800003447347234613464346F3473340034CF
:1009280020342534323469342034003483120313DC
:10093800A200A001A101B52C2008220784000A12F8
:100948008A1171240A128A110A128A11E7250A12D9
:100958008A11013083120313A0070318A10A00307B
:10096800A1072008220784000A128A1171240A129A
:100978008A11003A031DC12CC22CA02C0800F401D6
:10098800F50183120313201CCA2CCB2CD12C22086E
:10099800F4070318F50A2308F50701300310A20D20
:1009A800A30DFF3E031DD22C01300310A10CA00C97
:1009B800FF3E031DD92C20082104031DE42CE52C3F
:1009C800C52C7508A1007408A00008000330831620
:1009D80003178800890183160313871707178901EE
:1009E80083120313870189016130831603138F0073
:1009F8000A128A11F7250A128A110A128A11462642
:100A08000A128A110A128A11D6250A128A110A12A2
:100A18008A114C260A128A11080083120313A300B4
:100A28002303031D182D192D252D21087F3EA20013
:100A38002208A40024080A128A11A0250A128A1181
:100A4800362D02302306031D2A2D2B2D362D210885
:100A5800BF3EA2002208A40024080A128A11A02579
:100A68000A128A11080083120313A00008158815BA
:100A78002008303E86006430F4000030F5000A1289
:100A88008A1106260A128A11831203138811C830A4
:100A9800F4000030F5000A128A1106260A128A119B
:100AA800080083120313A000081188152008860087
:100AB8006430F4000030F5000A128A1106260A1282
:100AC8008A118312031388116430F4000030F50092
:100AD8000A128A1106260A128A11080083160313BD
:100AE80087150716831203139301C0308316031367
:100AF8009400283083120313940083160313910182
:100B0800831203138C110930831603139300080012
:100B18001E3083120313BB003B08AC004608BC0020
:100B2800BD013C08AD003D08AE0047300A128A11ED
:100B380024200A128A11080083120313A000081146
:100B48002008860088150C30F500AF30F400F40B4F
:100B5800AB2DF50BAB2D8312031388110800F5009C
:100B6800F4013A3075020318BA2DBB2DC32D30306D
:100B78007502031CC02DC12DC32DF401F40A740C99
:100B88000800F400740883120313930083160313F8
:100B98001418CF2DD02DCA2D0A128A1136260A1202
:100BA8008A110800831603139A0119309900181541
:100BB800181283120313981783160313181383123A
:100BC800031318160800F500831203130815750897
:100BD800860088151D30F400F40BF02DF32D8312D8
:100BE800031388110800831603139A01193099001A
:100BF8001815181283120313981783160313181362
:100C0800981608000130F4020030031CF503F502C1
:100C1800740A031D132E750A031D132E142E062E97
:100C280008000A128A1136260A128A11831603133B
:100C380011151119202E212E1D2E080083160313BD
:100C48009115141C282E292E252E83120313130800
:100C580008008316031391161116111A342E352E17
:100C6800312E0800831203138C1D3B2E3C2E362E8A
:100C78008C1108008316031391149118442E452EE5
:100C8800412E08008B170B17831603130C16080048
:0C0C98008B170B17831603138C16080033
:04400E00F420FF3F5C
:00000001FF
